:030478000134004C
:100257001204FA12046112057F12042E8F34E5345A
:1002670060F7FB7A007516027D017F021202E8E54E
:1002770034B447057F5A1204E5E534B407117F2DDE
:100287001204E57F2C7E011204D07F5A1204E5E5A3
:1002970034B445C57F871204E57F2C7E011204D054
:0702A7007F5A1204E580B24A
:1004D000EF1FAC0670011E4C600A7D017CF8DCFE4B
:0404E000DDFC80ECD3
:0104E40022F5
:06053000C2A58F80D2A7D6
:080536007F027EEFDEFEDFFC18
:01053E00229A
:0A055800C2A6120530C2A702053644
:1003D700CFCDCFCECCCE1201767C007D0A1201762E
:0403E700ED2430FFD2
:0A03EB00D2A6120530C2A7020536A3
:10048E00AE07BE0104ED148006BE0209ED243F4402
:06049E0080FF1205582248
:1004FA007F381205587F0C1205587F061205587F5F
:04050A00010205588D
:0A056200AC0312048EAF040203EB99
:0603B4008B2C8A2D892E1E
:1003BA0012048EE4FDAB2CAA2DA92E8D8275830022
:0C03CA00120137FF60061203EB0D80E902
:0103D6002204
:0C0359007F0AEA24FFFDE434FFFC7E0074
:080365008E178F188C198D1AF8
:10036D007F017E00E4FBEBC3951AE5196480F874F8
:0E037D008098500AAC17AD181201640B80E88E
:01038B00224F
:0403F5008A248B25A6
:1003F90012048EAA26EAD39400400D120359AC24A4
:08040900AD251203D71A80EDA6
:0104110022C8
:1002AE0012048EC3EA64809480400B7F2B1203EB02
:1002BE008A208B21800E7F2D1203EBC3E49BF52148
:1002CE00E49AF520AA1FEAD39400400D120359AC0C
:0902DE0020AD211203D71A80EDB6
:0102E70022F4
:0402E8008A148B15D4
:1002EC0012048EAA16EAD3940040297F1012035BE5
:1002FC00AC14AD15CFCDCFCECCCE120176EF540FC2
:10030C00FEC3940AEE5004243080022437FF1203FB
:04031C00EB1A80D187
:0103200022BA
:040321008A298B2A70
:1003250012048EAA2BEAD394004028EA24FFFDE4A8
:1003350034FFFC7F027E00120365AC29AD2ACFCDC8
:10034500CFCECCCE120176EF54012430FF1203EB51
:030355001A80D239
:010358002282
:10041200E4FFE5B060010FE5B0640160027F02E530
:0B042200B060027F03E5B060027F04C1
:01042D0022AC
:1004A40085302F1204128F30E52F65306007E53058
:0504B4007003852F31EB
:0104B9002220
:09056C00E5316005FFE4F53122E0
:010575002263
:10044A005389F0438901758A18758CFCC28DD28C48
:07045A00D2A9D2AFC2B92202
:06047B0001330001320014
:100461005389F0438901758A18758CFCC28DD28C31
:07047100D2A9D2AFC2B922EB
:1004E500EFD394B440027FB4EF75F02D8404C2A914
:0404F500F533D2A960
:0104F90022E0
:03000B0002038C61
:04038C00C0E0C0D03D
:10039000758A33758CFEE5327002D293E532B5333F
:0F03A00002C2930532E532C39428400375320040
:0503AF00D0D0D0E032C7
:0C048100010B00010C00010D000108003F
:0300030002000EEA
:10000E00C0E0C0F0C083C082C0D075D000C000C0B8
:10001E0001C002C003C004C005C006C007E50B70D6
:10002E0010750B01FFFE1205157F011205760201F8
:10003E001CE50B6401703F1204BA12050ED3E50ADB
:10004E0094C8E50994324010E50A94B0E509943657
:10005E005006750B0202011CD3E50A94FEE50994C5
:10006E00294010E50A94E6E509942D50067508011D
:10007E0002011C020119E50B6402600302011C124D
:10008E0004BA12050ED3E50A946CE50994024037C2
:10009E00E50A94F0E5099405502DE50C131313545D
:1000AE001F240EF8C000E6FFE50C5407FEF874019D
:1000BE00088002C333D8FCF45FD000F6050CE50CC3
:1000CE00C394204049803FD3E50A94D6E5099406AF
:1000DE004039E50A945AE509940A502FE50C13139A
:1000EE0013541F240EF8C000E6FFE50C5407FEF86B
:1000FE007401088002C333D8FC4FD000F6050CE51E
:10010E000CC39420400812053F8003750B01D007E5
:10011E00D006D005D004D003D002D001D000D0D06C
:09012E00D082D083D0F0D0E03281
:06057F0012054D020520EB
:0E053F00E4F50CF50BFFFE120515750D0122FB
:10042E00E50D6015E511F4B5100CE50FF4B50E06EB
:0C043E00E4F50DAF10227F00227F0022A9
:0B054D00D288C289D2A8D2AFD2B82257
:1005200053890F438910E4F58DF58BC28FC28E225B
:07050E008E098F0AE4FFFED5
:0B051500AD07AC068C8DAF058F8B226C
:09057600BF0103D28E22C28E22C5
:1004BA00AF8DEFFEAD8BEDFF7C007D5C1201767C8B
:0604CA00007D64020164E4
:030000000201CB2F
:0C01CB00787FE4F6D8FD75813402021242
:10013700BB010CE58229F582E5833AF583E022507D
:1001470006E92582F8E622BBFE06E92582F8E222C7
:0D015700E58229F582E5833AF583E49322E1
:10016400EF8DF0A4A8F0CF8CF0A428CE8DF0A42EAF
:02017400FE2269
:10017600BC000BBE0029EF8DF084FFADF022E4CC6D
:10018600F875F008EF2FFFEE33FEEC33FCEE9DEC36
:10019600984005FCEE9DFE0FD5F0E9E4CEFD22ED7C
:1001A600F8F5F0EE8420D21CFEADF075F008EF2FC6
:1001B600FFED33FD4007985006D5F0F222C398FDB7
:0501C6000FD5F0EA2254
:1001D700020257E493A3F8E493A34003F68001F2E5
:1001E70008DFF48029E493A3F85407240CC8C33329
:1001F700C4540F4420C8834004F456800146F6DFF8
:10020700E4800B0102040810204080900478E47E0B
:10021700019360BCA3FF543F30E509541FFEE493EC
:10022700A360010ECF54C025E060A840B8E493A3B3
:10023700FAE493A3F8E493A3C8C582C8CAC583CADE
:10024700F0A3C8C582C8CAC583CADFE9DEE780BE96
:01048D00006E
:00000001FF
