:1005E400020E000001190001170002100000010DA5
:1005F40000011600010A00020B00000208000001BD
:0A060400180002144507021200005E
:1002300043966053959FC2A51208781207CC120608
:10024000DC1200067B007A0079121207FD120746C5
:100250008F19E519605D1206377FC87E00120026EF
:10026000E5196512701475172DAF171207277F90C7
:100270007E01120026E4F5178018E5196513702D2C
:10028000751787AF171207277F907E01120026751A
:1002900017B4AF171207277F1E7E001200267517AE
:1002A0005AAF171207277F2C7E01120026E4F5199A
:1002B0001208711205678E108F11C3E5119448E57D
:1002C00010940D5005750D01800ED3E51194ACE529
:1002D00010940D4003E4F50DE50A7003020374E485
:1002E000F50BF50CAE0BAF0CE4FCFD7BCF7A8AF975
:1002F000F8D31201ED4078E50A60741207468F19B1
:10030000E5196038D2A57F587E02120026AF187416
:10031000142FF8A6190518E518C39402401E7B0097
:100320007A0079141206B27F647E001200267B00E8
:100330007A0079121207FDE4F518F50A0509E509B6
:1003400070020508D3E5099464E5089400400E3076
:10035000A504C2A58002D2A5E4F508F5097F017EB7
:1003600000120026050CE50C7002050B0202E4E405
:10037000F50AC2A5E538700EC2DEF50EF50F43870B
:1003800002000002024D7F017E00120026050FE5EB
:100390000F7002050ED3E50F9496E50E94005003FE
:1003A00002024DE4FFFE12083BE4F539F538020283
:0103B0004DFF
:030013000207B32E
:1007B300C0E0C0D0E50AB40108750A0075180080CE
:0907C30003750A01D0D0D0E03228
:05000600D28AD2AA22FB
:10063700E50D64016007D2A5C2A6D2DE22E4F51655
:10064700E5112448FFE51034F4FE7C007D641200B8
:10065700CAAD16C3ED9FE49E5016D2A57F2C7E012E
:10066700120026C2A57F2C7E01120026051680D017
:10067700C3E511941CE510940C5005120871C2AF24
:010687002250
:07087100C2A5D2A6C2DE22DF
:10002600EF1FAC0670011E4C600A7D0C7CA9DCFE3D
:04003600DDFC80EC81
:01003A0022A3
:08060E00021C0000021A4E203C
:1006DC0053A2CFE4F5D8F5E9F5F9F5D9851DEAE58E
:1006EC001CF5FA75DA49851BEBE51AF5FB75DB4948
:0706FC00D291D2DED2AF2241
:03003B00020703B6
:10070300C0E030D804C2D8C29130D915C2D9D29131
:10071300C2DE75E90075F900851DEAE51CF5FAD21C
:04072300DED0E03212
:10072700EFD394B440027FB4EF75F02D842401FF1A
:0F073700E433FE7C017DF41200B88E1C8F1D226E
:1006160002360000013800043B00000000013900EA
:0A062600013A000135000233000024
:030003000203B144
:1003B100C0E0C0F0C083C082C0D075D000C000C012
:1003C10001C002C003C004C005C006C007E5387003
:1003D100057538018028E53864017032C28C120835
:1003E100448E368F37D3E53794E0E536942E4018A6
:1003F100E5379480E536943E500E753802E4FFFEF1
:1004010012083BD28C0204C01208360204BDE53842
:10041100640260030204C0C28C1208448E368F3716
:10042100D3E53794F4E5369401403FE5379440E550
:100431003694065035E4FFFE12083BD28CE53913A1
:100441001313541F243BF8C000E6FFE5395407FE9F
:10045100F87401088002C333D8FCF45FD000F605BC
:1004610039E539C3942040578047D3E53794A4E553
:100471003694064041E53794F0E536940A5037E466
:10048100FFFE12083BD28CE539131313541F243B92
:10049100F8C000E6FFE5395407FEF8740108800250
:1004A100C333D8FC4FD000F60539E539C394204059
:1004B1000E1208288009120836753900753800D0E7
:1004C10007D006D005D004D003D002D001D000D08F
:0A04D100D0D082D083D0F0D0E0320A
:0608780012001602081335
:0E082800E4F539F538FFFE12083B753A01225F
:10074600E53A6017E53EF4B53D0CE53CF4B53B06ED
:0E075600E4F53AAF3D22E4F53AFF227F00229F
:0B001600D288D2A8C289D2AFD2B82293
:10081300538E7F5389F0438901E4F58AF58CC28DA9
:05082300C28CD2A922E5
:03000B0002086088
:09086000C28C75380075390032B4
:05083600C28CE4FFFE8E
:09083B00AD07AC068C8C8D8A22FD
:0D084400AF8CEFAD8AF533EDF534AE33FF28
:010851002284
:060630000132000131005F
:1007CC00C200759850438E01438E0475D7C775D6F9
:0907DC00FE438E10D2ACD2AF2214
:080869002000FDD2008F99224E
:10076400E531B532037F002274212531F8E6120009
:0B07740084E53104540FF5317F0122B1
:030023000206884A
:10068800C0E0C0D075D000C000309904C299C20043
:10069800309810C29874212532F8A699E53204548E
:0A06A8000FF532D000D0D0D0E032C0
:0E085200E4F5C7F5C5F5C675C3FF75C4FF22F2
:04077F00AD07AC0610
:1007830075C78275C5018CC38DC475C65A75C6A558
:0607930000AFC202085293
:1007E500AD07AC0675C78275C5038CC38DC475C6C8
:0807F5005A75C6A50002085266
:10079900AB07AA0675C78275C5028AC38BC48DC209
:0A07A90075C65A75C6A50002085275
:1006B2008B3F8A408941E4FFFE1207E5AB3FAA4027
:1006C200A94112003EFD120799AB3FAA40A94190F1
:0A06D2000001120057FD0F02079906
:1007FD00E4FFFE12077FEF1200847F0112077F9046
:06080D000001EF0200965D
:10056700900000E4F542F541F540F53F7DDA7C0463
:10057700F5BDF5BE75BC880000000043BC08E5BCAE
:1005870030E4FB53BCEFAFBDEF75F004A4FFE5BE4D
:100597005403FBE5F0F583EF4BF582D39400E58335
:1005A7009400402BAE04AF057C047D00120203C00B
:1005B70006C007AE83AF82AB07AA06E4F9F8D007F7
:1005C700D00612015B8F428E418D408C3F8009E43B
:0C05D700F542F541F540F53FAE41AF4262
:0105E30022F5
:030000000204DB1C
:0C04DB00787FE4F6D8FD7581420205220E
:10003E00BB010689828A83E0225002E722BBFE02C0
:09004E00E32289828A83E49322F3
:10005700BB010CE58229F582E5833AF583E022505E
:1000670006E92582F8E622BBFE06E92582F8E222A8
:0D007700E58229F582E5833AF583E49322C2
:10008400BB010689828A83F0225002F722BBFE015B
:02009400F32255
:10009600F8BB010DE58229F582E5833AF583E8F0A0
:1000A600225006E92582C8F622BBFE05E92582C84C
:0200B600F22234
:1000B800EF8DF0A4A8F0CF8CF0A428CE8DF0A42E5C
:0200C800FE2216
:1000CA00BC000BBE0029EF8DF084FFADF022E4CC1A
:1000DA00F875F008EF2FFFEE33FEEC33FCEE9DECE3
:1000EA00984005FCEE9DFE0FD5F0E9E4CEFD22ED29
:1000FA00F8F5F0EE8420D21CFEADF075F008EF2F73
:10010A00FFED33FD4007985006D5F0F222C398FD63
:05011A000FD5F0EA2200
:10011F0075F008758200EF2FFFEE33FECD33CDCC97
:10012F0033CCC58233C5829BED9AEC99E58298401A
:10013F000CF582EE9BFEED9AFDEC99FC0FD5F0D6F7
:10014F00E4CEFBE4CDFAE4CCF9A88222B800C1B921
:10015F000059BA002DEC8BF084CFCECDFCE5F0CB5F
:10016F00F97818EF2FFFEE33FEED33FDEC33FCEB98
:10017F0033FB10D703994004EB99FB0FD8E5E4F953
:10018F00FA227818EF2FFFEE33FEED33FDEC33FC40
:10019F00C933C910D7059BE99A4007EC9BFCE99A34
:1001AF00F90FD8E0E4C9FAE4CCFB2275F010EF2F79
:1001BF00FFEE33FEED33FDCC33CCC833C810D70779
:1001CF009BEC9AE899400AED9BFDEC9AFCE899F8B4
:0E01DF000FD5F0DAE4CDFBE4CCFAE4C8F92247
:1001ED00EB9FF5F0EA9E42F0E99D42F0EC6480C889
:0601FD0064809845F02229
:10020300EC8EF0A4CCC5F0CCCDF8EFA4CEC5F02D88
:10021300FDE43CFCE8A42EC8C5F03DFDE43CFCEF46
:0D022300A4FFE5F028FEE43DFDE43CFC22D4
:1004E700020230E493A3F8E493A34003F68001F2F9
:1004F70008DFF48029E493A3F85407240CC8C33316
:10050700C4540F4420C8834004F456800146F6DFE4
:10051700E4800B01020408102040809005E4E47E8B
:10052700019360BCA3FF543F30E509541FFEE493D9
:10053700A360010ECF54C025E060A840B8E493A3A0
:10054700FAE493A3F8E493A3C8C582C8CAC583CACB
:10055700F0A3C8C582C8CAC583CADFE9DEE780BE83
:0106360000C3
:00000001FF
