:10073B00256420090A0044617461303A256420095C
:10074B000A0044617461313A256420090A0044614E
:10075B007461323A256420090A0044617461333AAA
:06076B00256420090A00CC
:0307A400015E00F3
:10062C001209DC1208D1D2A512089A8F5EE55E6021
:10063C0012C28C7BFF7A07793B750B00F50C12000C
:10064C0088D28CE53C60DF7BFF7A077941750B0023
:10065C00F50C1200887BFF7A07794D750B00853DF0
:10066C000C1200887BFF7A077959750B00853E0CBC
:10067C001200887BFF7A077965750B00853F0C1299
:04068C00008880A2C0
:10000E00EF1FAC0670011E4C600A7D0C7CA9DCFE55
:04001E00DDFC80EC99
:0100220022BB
:06097800C2A58F80D2A78A
:08097E007F027EEFDEFEDFFCCC
:01098600224E
:0A09AD00C2A6120978C2A702097E53
:10084300CFCDCFCECCCE1204FC7C007D0A1204FCAB
:04085300ED2430FF61
:0A085700D2A6120978C2A702097E9A
:10090100AE07BE0104ED148006BE0209ED243F448A
:0609110080FF1209AD2277
:100942007F381209AD7F0C1209AD7F061209AD7F07
:04095200010209ADE8
:0A09B700AC03120901AF0402085757
:060820008B568A5789582F
:10082600120901E4FDAB56AA57A9588D82758300BB
:0C0836001204ABFF60061208570D80E9A9
:010842002293
:0C0771007F0AEA24FFFDE434FFFC7E0058
:08077D008E1C8F1D8C1E8D1FC8
:100785007F017E00E4FBEBC3951FE51E6480F874D2
:0E0795008098500AAC1CAD1D1204EA0B80E8DF
:0107A3002233
:040861008A498B4AEB
:10086500120901AA4BEAD39400400D120771AC4955
:08087500AD4A1208431A80EDA0
:01087D002258
:10069000120901C3EA64809480400B7F2B12085733
:1006A0008A458B46800E7F2D120857C3E49BF54682
:1006B000E49AF545AA44EAD39400400D120771ACC0
:0906C00045AD461208431A80ED15
:0106C900220E
:0406CA008A4E8B4F7A
:1006CE00120901AA50EAD3940040297F1012077331
:1006DE00AC4EAD4FCFCDCFCECCCE1204FCEF540FDF
:1006EE00FEC3940AEE5004243080022437FF120811
:0406FE00571A80D136
:0107020022D4
:040703008A538B5436
:10070700120901AA55EAD394004028EA24FFFDE420
:1007170034FFFC7F027E0012077DAC53AD54CFCD72
:10072700CFCECCCE1204FCEF54012430FF12085771
:030737001A80D253
:01073A00229C
:10087E00E4FFE5B060010FE5B0640160027F02E5C0
:0B088E00B060027F03E5B060027F0451
:01089900223C
:10091700855A5912087E8F5AE559655A6007E55A74
:05092700700385595B1F
:01092C0022A8
:0909C100E55B6005FFE4F55B2233
:0109CA00220A
:0607A700015D00015C0091
:1008EA005389F0438901758A18758CFCC28DD28CA4
:0708FA00D2A9D2AFC2B9225E
:10092D00EFD394B440027FB4EF75F02D8404C2A9C7
:04093D00F55DD2A9E9
:010941002293
:03000B000207F8F1
:0407F800C0E0C0D0CD
:1007FC00758A33758CFEE55C7002D293E55CB55D51
:0F080C0002C293055CE55CC394284003755C0051
:05081B00D0D0D0E03256
:1007AD000239000002350000013700043C00000052
:0A07BD0000013800013B0001340088
:0300030002038273
:10038200C0E0C0F0C083C082C0D075D000C000C041
:1003920001C002C003C004C005C006C007E5377033
:1003A20010753701FFFE12095D7F011209CB0204AD
:1003B20090E5376401703F120995120956D3E5366C
:1003C20094E0E535942E4010E5369498E535943A5C
:1003D2005006753702020490D3E53694FEE5359453
:1003E200294010E53694E6E535942D500675340122
:1003F20002049002048DE537640260030204901245
:100402000995120956D3E53694EEE5359402403744
:10041200E5369472E5359406502DE53813131354DE
:100422001F243CF8C000E6FFE5385407FEF87401CB
:10043200088002C333D8FCF45FD000F60538E538F3
:10044200C394204049803FD3E536946CE535940748
:100452004039E5369492E5359409502FE538131367
:1004620013541F243CF8C000E6FFE5385407FEF899
:100472007401088002C333D8FC4FD000F60538E57A
:1004820038C3942040081209878003753701D007CA
:10049200D006D005D004D003D002D001D000D0D0F5
:0904A200D082D083D0F0D0E0320A
:0609DC001209A2020968E5
:0E098700E4F538F537FFFE12095D753B0122DD
:10089A00E53B6015E53FF4B53E0CE53DF4B53C0695
:0C08AA00E4F53BAF3E227F00227F0022DD
:0B09A200D288D2A8C289D2AFD2B822FE
:10096800538E7F5389F0E4F58AF58CC28DD28C22A0
:070956008E358F36E4FFFE31
:0B095D00AD07AC068C8CAF058F8A2222
:0909CB00BF0103D28C22C28C2270
:0C099500AF8CEFFEAD8AEDFF8E39F53A15
:0109A1002233
:0607C700013300013200C5
:1008D100C209759850438E01438E0475D7C775D6EA
:0908E100FE438E10D2ACD2AF220E
:0809D4002009FDD2098F9922D0
:1008B600E532B533037F002274222532F8E61204AE
:0B08C600D8E53204540FF5327F012208
:030023000207CE03
:1007CE00C0E0C0D075D000C000309904C299C209F3
:1007DE00309810C29874222533F8A699E533045444
:0A07EE000FF533D000D0D0D0E03278
:030000000205A056
:0C05A000787FE4F6D8FD75815E0205E767
:1004AB00BB010CE58229F582E5833AF583E0225006
:1004BB0006E92582F8E622BBFE06E92582F8E22250
:0D04CB00E58229F582E5833AF583E493226A
:1004D800BB010689828A83F0225002F722BBFE0103
:0204E800F322FD
:1004EA00EF8DF0A4A8F0CF8CF0A428CE8DF0A42E26
:0204FA00FE22E0
:1004FC00BC000BBE0029EF8DF084FFADF022E4CCE4
:10050C00F875F008EF2FFFEE33FEEC33FCEE9DECAC
:10051C00984005FCEE9DFE0FD5F0E9E4CEFD22EDF2
:10052C00F8F5F0EE8420D21CFEADF075F008EF2F3C
:10053C00FFED33FD4007985006D5F0F222C398FD2D
:05054C000FD5F0EA22CA
:10002600E517240BF8E60517227808300702780B47
:10003600E475F00112056A0205512000EB7F2ED20D
:10004600008018EF540F2490D43440D4FF30040BB2
:10005600EF24BFB41A0050032461FFE518600215AF
:1000660018051BE51B7002051A30070D7808E475A4
:10007600F00112056AEF0204D80209D47403D2070C
:100086008003E4C207F5178B088A09890AE4F51884
:10009600F51AF51BE51860077F2012006180F575DB
:1000A60019FFC201C200C202C203C205C206C208CB
:1000B60012002FFF700D3007057F00120072AF1B74
:1000C600AE1A22B4255FC2D5C20412002FFF24D077
:1000D600B40A00501A75F00A781830D50508B6FF2C
:1000E6000106C6A426F620D5047002D20380D924C0
:1000F600CFB41A00EF5004C2E5D204020272D20154
:1001060080C6D20080C0D20280BCD2D580BAD205C9
:1001160080B47F201200612002077401B5180040E8
:10012600F1120026FF12006102009AD208D2068060
:1001360095120026FB120026FA120026F94A4B7089
:100146000679437A037BFF20022EE518602A7E009B
:100156008E827583001204AB60060EEE651970F090
:10016600C2D5EBC0E0EAC0E0E9C0E0EE1202B9D0C9
:10017600E0F9D0E0FAD0E0FB120551FF60AAEBC02F
:10018600E0EAC0E0E9C0E0120061D0E02401F9D065
:10019600E03400FAD0E0FBE5190460DCD519D9801B
:1001A600877BFF7A0279B5D202809C79108002792A
:1001B60008C206C2088008D2D5790A8004790AC224
:1001C600D5E519047002F519E4FAFDFEFF120026C2
:1001D600FC7B08200113120026FD7B1030000A125A
:1001E6000026FE120026FF7B20EC3382D592D550E6
:1001F60013C3E43000069FFFE49EFEE42001039D46
:10020600FDE49CFCE4CBF8C201EC700CCFCECDCC67
:10021600E824F8F870F38017C3EF33FFEE33FEEDF2
:1002260033FDEC33FCEB33FB994002FB0FD8E9EBD3
:10023600300105F8D0E0C448B201C0E00AEC4D4EEA
:100246004F78207B0070C2EAB5190040BCC0E012AE
:1002560002BBD0F0D0E0200104C4C0E0C4B201C0AB
:10026600F012004AD0F0D5F0EB02009A12057A019E
:10027600375301B15801084C01044201B54F01BD85
:0F0286004401BD49011D4301C35501A74601A70E
:100295004501A747036350010C2D01102E01332B97
:1002A500011423013120034C2A00CC480000012B06
:1002B5003F3F3F00790AA2D5200314300509B91044
:1002C500020404B9080104A2D52006025001042045
:1002D50002689202B518005034C0E07F203003193F
:1002E5007F30A20272067205500F120312C202C2BB
:1002F50006C205C2087F30800F300503E9C0E01251
:100305000061300503D0E0F9D0E0B518CC30051711
:100315007F30B9100C1200617F583004077F788058
:1003250003B908031200613002057F2D0200617FC9
:10033500202008F87F2B2006F322920280CF286E1A
:10034500756C6C2900D2011200263001F8C20178C3
:100355001830D50108F60200CC2D5043495812003B
:10036500262403B405004001E490035E9312005275
:0D037500743A120052D2037518040201B14F
:1005AC0002062CE493A3F8E493A34003F68001F233
:1005BC0008DFF48029E493A3F85407240CC8C33350
:1005CC00C4540F4420C8834004F456800146F6DF1F
:1005DC00E4800B01020408102040809007A4E47E04
:1005EC00019360BCA3FF543F30E509541FFEE49314
:1005FC00A360010ECF54C025E060A840B8E493A3DB
:10060C00FAE493A3F8E493A3C8C582C8CAC583CA05
:10061C00F0A3C8C582C8CAC583CADFE9DEE780BEBD
:0107CD00002B
:10055100BB010689828A83E0225002E722BBFE02A8
:09056100E32289828A83E49322DB
:10056A00FAE6FB0808E6F925F0F618E6CA3AF62292
:10057A00D083D082F8E4937012740193700DA3A310
:10058A0093F8740193F5828883E473740293686024
:06059A00EFA3A3A380DF24
:00000001FF
