:06093100256420090A0004
:03071B00015A0080
:10077000E4F5B275B10412093712082DC2A51207AB
:10078000D88F5AE55A60F77BFF7A097931750B00EB
:07079000F50C12008880E760
:10087200EF1FAC0670011E4C600A7D0C7CA9DCFEE9
:04088200DDFC80EC2D
:01088600224F
:0608C300C2A58F80D2A740
:0808C9007F027EEFDEFEDFFC82
:0108D1002204
:0A08F800C2A61208C3C2A70208C975
:1007BA00CFCDCFCECCCE12050D7C007D0A12050D11
:0407CA00ED2430FFEB
:0A07CE00D2A61208C3C2A70208C990
:10084600AE07BE0104ED148006BE0209ED243F4446
:0608560080FF1208F822E9
:10089C007F381208F87F0C1208F87F061208F87FD0
:0408AC00010208F845
:0A090200AC03120846AF040207CE52
:060797008B5B8A5C895DAA
:10079D00120846E4FDAB5BAA5CA95D8D82758300F2
:0C07AD001204BCFF60061207CE0D80E9AC
:0107B900221D
:0C06E8007F0AEA24FFFDE434FFFC7E00E2
:0806F4008E1C8F1D8C1E8D1F52
:1006FC007F017E00E4FBEBC3951FE51E6480F8745C
:0E070C008098500AAC1CAD1D1204FB0B80E857
:01071A0022BC
:040006008A4B8B4C4A
:10000A00120846AA4DEAD39400400D1206E8AC4BFA
:08001A00AD4C1207BA1A80ED8B
:0100220022BB
:10063D00120846C3EA64809480400B7F2B1207CECC
:10064D008A478B48800E7F2D1207CEC3E49BF54859
:10065D00E49AF547AA46EAD39400400D1206E8AC99
:09066D0047AD481207BA1A80EDEE
:010676002261
:040677008A508B51C9
:10067B00120846AA52EAD3940040297F101206EAC8
:10068B00AC50AD51CFCDCFCECCCE12050DEF540F1C
:10069B00FEC3940AEE5004243080022437FF120765
:0406AB00CE1A80D112
:0106AF002228
:0406B0008A558B5686
:1006B400120846AA57EAD394004028EA24FFFDE42E
:1006C40034FFFC7F027E001206F4AC55AD56CFCD4C
:1006D400CFCECCCE12050DEF54012430FF1207CE3D
:0306E4001A80D2A7
:0106E70022F0
:1007F600E4FFE5B060010FE5B0640160027F02E549
:0B080600B060027F03E5B060027F04D9
:0108110022C4
:10085C00855F5E1207F68F5FE55E655F6007E55F9B
:05086C007003855E60D1
:010871002264
:09090C00E5606005FFE4F56022DE
:0109150022BF
:03071E0001630074
:10088700EFD394B440027FB4EF75F02D8404C2A96E
:04089700F563D2A98A
:01089B00223A
:10072100023B000002370000013900043E000000D6
:0E07310000013A00013D0001360002340000D4
:0300030002038273
:10038200C0E0C0F0C083C082C0D075D000C000C041
:1003920001C002C003C004C005C006C007B2A3E585
:1003A20039700C753901F58CF58AD28C0204A1E5FD
:1003B2003964017032C28CAF8CEFAD8AF537EDF53E
:1003C20038D3E53894E0E537942E4018E538948028
:1003D200E537943E500E753902758C00758A00D24D
:1003E2008C0204A1020496E539640260030204A1AE
:1003F200C28CAF8CEFAD8AF537EDF538D3E5389482
:10040200F4E5379401403FE5389440E537940650CF
:1004120035758C00758A00D28CE53A131313541F7C
:10042200243EF8C000E6FFE53A5407FEF8740108DE
:100432008002C333D8FCF45FD000F6053AE53AC334
:100442009420405B8047D3E53894A4E53794064076
:1004520043E53894F0E537940A5039758C00758A73
:1004620000D28CE53A131313541F243EF8C000E661
:10047200FFE53A5407FEF87401088002C333D8FC42
:100482004FD000F6053AE53AC394204012D2A512A5
:1004920008E0800BC28C758C00758A00753900D01B
:1004A20007D006D005D004D003D002D001D000D0AE
:0A04B200D0D082D083D0F0D0E03229
:060937001208ED0208B0F9
:0D08E000E4F53AF539F58CF58A753D0122F5
:1007D800E53D6017D2A5E541F4B5400CE53FF4B519
:0E07E8003E06E4F53DAF40227F00227F002256
:0B08ED00D288D2A8C289D2AFD2B822B4
:1008B000538E7F5389F0438901E4F58AF58CC28D0C
:0308C000C28C22C5
:0A0916008E618F62E4F58CF58A22F1
:09092000BF0103D28C22C28C221B
:0D08D200AF8CEFAD8AF534EDF535AE34FF97
:0108DF0022F6
:06073F000133000132004D
:10082D00C209759850438E01438E0475D7C775D68E
:09083D00FE438E10D2ACD2AF22B2
:080929002009FDD2098F99227B
:10081200E532B533037F002274222532F8E6120452
:0B082200E9E53204540FF5327F01229B
:030023000207468B
:10074600C0E0C0D075D000C000309904C299C2097B
:10075600309810C29874222533F8A699E5330454CC
:0A0766000FF533D000D0D0D0E03200
:030000000205B145
:0C05B100787FE4F6D8FD7581630205F840
:1004BC00BB010CE58229F582E5833AF583E02250F5
:1004CC0006E92582F8E622BBFE06E92582F8E2223F
:0D04DC00E58229F582E5833AF583E4932259
:1004E900BB010689828A83F0225002F722BBFE01F2
:0204F900F322EC
:1004FB00EF8DF0A4A8F0CF8CF0A428CE8DF0A42E15
:02050B00FE22CE
:10050D00BC000BBE0029EF8DF084FFADF022E4CCD2
:10051D00F875F008EF2FFFEE33FEEC33FCEE9DEC9B
:10052D00984005FCEE9DFE0FD5F0E9E4CEFD22EDE1
:10053D00F8F5F0EE8420D21CFEADF075F008EF2F2B
:10054D00FFED33FD4007985006D5F0F222C398FD1C
:05055D000FD5F0EA22B9
:10002600E517240BF8E60517227808300702780B47
:10003600E475F00112057B0205622000EB7F2ED2EB
:10004600008018EF540F2490D43440D4FF30040BB2
:10005600EF24BFB41A0050032461FFE518600215AF
:1000660018051BE51B7002051A30070D7808E475A4
:10007600F00112057BEF0204E90209297403D20795
:100086008003E4C207F5178B088A09890AE4F51884
:10009600F51AF51BE51860077F2012006180F575DB
:1000A60019FFC201C200C202C203C205C206C208CB
:1000B60012002FFF700D3007057F00120072AF1B74
:1000C600AE1A22B4255FC2D5C20412002FFF24D077
:1000D600B40A00501A75F00A781830D50508B6FF2C
:1000E6000106C6A426F620D5047002D20380D924C0
:1000F600CFB41A00EF5004C2E5D204020272D20154
:1001060080C6D20080C0D20280BCD2D580BAD205C9
:1001160080B47F201200612002077401B5180040E8
:10012600F1120026FF12006102009AD208D2068060
:1001360095120026FB120026FA120026F94A4B7089
:100146000679437A037BFF20022EE518602A7E009B
:100156008E827583001204BC60060EEE651970F07F
:10016600C2D5EBC0E0EAC0E0E9C0E0EE1202B9D0C9
:10017600E0F9D0E0FAD0E0FB120562FF60AAEBC01E
:10018600E0EAC0E0E9C0E0120061D0E02401F9D065
:10019600E03400FAD0E0FBE5190460DCD519D9801B
:1001A600877BFF7A0279B5D202809C79108002792A
:1001B60008C206C2088008D2D5790A8004790AC224
:1001C600D5E519047002F519E4FAFDFEFF120026C2
:1001D600FC7B08200113120026FD7B1030000A125A
:1001E6000026FE120026FF7B20EC3382D592D550E6
:1001F60013C3E43000069FFFE49EFEE42001039D46
:10020600FDE49CFCE4CBF8C201EC700CCFCECDCC67
:10021600E824F8F870F38017C3EF33FFEE33FEEDF2
:1002260033FDEC33FCEB33FB994002FB0FD8E9EBD3
:10023600300105F8D0E0C448B201C0E00AEC4D4EEA
:100246004F78207B0070C2EAB5190040BCC0E012AE
:1002560002BBD0F0D0E0200104C4C0E0C4B201C0AB
:10026600F012004AD0F0D5F0EB02009A12058B018D
:10027600375301B15801084C01044201B54F01BD85
:0F0286004401BD49011D4301C35501A74601A70E
:100295004501A747036350010C2D01102E01332B97
:1002A500011423013120034C2A00CC480000012B06
:1002B5003F3F3F00790AA2D5200314300509B91044
:1002C500020404B9080104A2D52006025001042045
:1002D50002689202B518005034C0E07F203003193F
:1002E5007F30A20272067205500F120312C202C2BB
:1002F50006C205C2087F30800F300503E9C0E01251
:100305000061300503D0E0F9D0E0B518CC30051711
:100315007F30B9100C1200617F583004077F788058
:1003250003B908031200613002057F2D0200617FC9
:10033500202008F87F2B2006F322920280CF286E1A
:10034500756C6C2900D2011200263001F8C20178C3
:100355001830D50108F60200CC2D5043495812003B
:10036500262403B405004001E490035E9312005275
:0D037500743A120052D2037518040201B14F
:1005BD00020770E493A3F8E493A34003F68001F2DD
:1005CD0008DFF48029E493A3F85407240CC8C3333F
:1005DD00C4540F4420C8834004F456800146F6DF0E
:1005ED00E4800B010204081020408090071BE47E7C
:1005FD00019360BCA3FF543F30E509541FFEE49303
:10060D00A360010ECF54C025E060A840B8E493A3C9
:10061D00FAE493A3F8E493A3C8C582C8CAC583CAF4
:10062D00F0A3C8C582C8CAC583CADFE9DEE780BEAC
:0107450000B3
:10056200BB010689828A83E0225002E722BBFE0297
:09057200E32289828A83E49322CA
:10057B00FAE6FB0808E6F925F0F618E6CA3AF62281
:10058B00D083D082F8E4937012740193700DA3A3FF
:10059B0093F8740193F5828883E473740293686013
:0605AB00EFA3A3A380DF13
:00000001FF
