:10078000436F64653A256420090A00416E676C6511
:070790003A256420090A006C
:06066B0001410001400006
:1005F00043966053959FC2A5C2A61207DD120767F6
:100600001206C412072E8F41E54160437BFF7A0733
:100610007980750B00F50C1200A0E541B4450FE59B
:1006200040D39487501A742D2540F5408012E5413F
:10063000B4071CE540C3942D400674D32540F54013
:100640007BFF7A07798B750B0085400C1200A0AFF9
:100650004012070F20B3ACB2A530A504D2A6800289
:0B066000C2A67F2C7E0112000E8098C5
:10000E00EF1FAC0670011E4C600A7D0C7CA9DCFE55
:04001E00DDFC80EC99
:0100220022BB
:08067100021E0000021C4E20D5
:1006C40053A2CFE4F5D8F5E9F5F9F5D9851FEAE5A4
:1006D4001EF5FA75DA49851DEBE51CF5FB75DB495A
:0706E400D291D2DED2AF2259
:03003B000206EBCF
:1006EB00C0E030D804C2D8C29130D915C2D9D2914A
:1006FB00C2DE75E90075F900851FEAE51EF5FAD231
:04070B00DED0E0322A
:10070F00EFD394B440027FB4EF75F02D842401FF32
:0F071F00E433FE7C017DF41204D68E1E8F1F2260
:1006790002370000013900043C00000000013A0083
:0A068900013B0001360002340000BE
:0300030002039A5B
:10039A00C0E0C0F0C083C082C0D075D000C000C029
:1003AA0001C002C003C004C005C006C007E5397019
:1003BA00057539018028E53964017032C28C12074B
:1003CA00B38E378F38D3E53894E0E537942E40184A
:1003DA00E5389480E537943E500E753902E4FFFE05
:1003EA001207AAD28C0204A91207A50204A6E539AB
:1003FA00640260030204A9C28C1207B38E378F38D5
:10040A00D3E53894F4E5379401403FE5389440E564
:10041A003794065035E4FFFE1207AAD28CE53A1348
:10042A001313541F243CF8C000E6FFE53A5407FEB4
:10043A00F87401088002C333D8FCF45FD000F605D3
:10044A003AE53AC3942040578047D3E53894A4E567
:10045A003794064041E53894F0E537940A5037E47A
:10046A00FFFE1207AAD28CE53A131313541F243C39
:10047A00F8C000E6FFE53A5407FEF8740108800266
:10048A00C333D8FC4FD000F6053AE53AC39420406E
:10049A000E12079780091207A5753A00753900D020
:1004AA0007D006D005D004D003D002D001D000D0A6
:0A04BA00D0D082D083D0F0D0E03221
:0607DD001207C102002614
:0E079700E4F53AF539FFFE1207AA753B012280
:10072E00E53B6017E53FF4B53E0CE53DF4B53C0600
:0E073E00E4F53BAF3E22E4F53BFF227F0022B4
:0B07C100D288D2A8C289D2AFD2B822E1
:10002600538E7F5389F0438901E4F58AF58CC28D9E
:05003600C28CD2A922DA
:03000B000207CC1D
:0907CC00C28C753900753A003247
:0507A500C28CE4FFFE20
:0907AA00AD07AC068C8C8D8A228F
:0D07B300AF8CEFAD8AF534EDF535AE34FFB7
:0107C0002216
:06069300013300013200FA
:10076700C209759850438E01438E0475D7C775D655
:09077700FE438E10D2ACD2AF2279
:0807D5002009FDD2098F9922D1
:10074C00E532B533037F002274222532F8E6120419
:0B075C00C4E53204540FF5327F012287
:0300230002069A38
:10069A00C0E0C0D075D000C000309904C299C20928
:1006AA00309810C29874222533F8A699E533045479
:0A06BA000FF533D000D0D0D0E032AD
:0300000002056492
:0C056400787FE4F6D8FD7581410205ABFC
:1004C400BB010689828A83F0225002F722BBFE0117
:0204D400F32211
:1004D600EF8DF0A4A8F0CF8CF0A428CE8DF0A42E3A
:0204E600FE22F4
:10003E00E517240BF8E60517227808300702780B2F
:10004E00E475F00112052E0204E82000EB7F2ED29B
:10005E00008018EF540F2490D43440D4FF30040B9A
:10006E00EF24BFB41A0050032461FFE51860021597
:10007E0018051BE51B7002051A30070D7808E4758C
:10008E00F00112052EEF0204C40207D57403D20745
:10009E008003E4C207F5178B088A09890AE4F5186C
:1000AE00F51AF51BE51860077F2012007980F575AB
:1000BE0019FFC201C200C202C203C205C206C208B3
:1000CE00120047FF700D3007057F0012008AAF1B2C
:1000DE00AE1A22B4255FC2D5C204120047FF24D047
:1000EE00B40A00501A75F00A781830D50508B6FF14
:1000FE000106C6A426F620D5047002D20380D924A8
:10010E00CFB41A00EF5004C2E5D20402028AD20123
:10011E0080C6D20080C0D20280BCD2D580BAD205B1
:10012E0080B47F201200792002077401B5180040B8
:10013E00F112003EFF1200790200B2D208D2068000
:10014E009512003EFB12003EFA12003EF94A4B7029
:10015E0006795B7A037BFF20022EE518602A7E006B
:10016E008E8275830012050160060EEE651970F021
:10017E00C2D5EBC0E0EAC0E0E9C0E0EE1202D1D099
:10018E00E0F9D0E0FAD0E0FB1204E8FF60AAEBC081
:10019E00E0EAC0E0E9C0E0120079D0E02401F9D035
:1001AE00E03400FAD0E0FBE5190460DCD519D98003
:1001BE00877BFF7A0279CDD202809C7910800279FA
:1001CE0008C206C2088008D2D5790A8004790AC20C
:1001DE00D5E519047002F519E4FAFDFEFF12003E92
:1001EE00FC7B0820011312003EFD7B1030000A122A
:1001FE00003EFE12003EFF7B20EC3382D592D5509E
:10020E0013C3E43000069FFFE49EFEE42001039D2D
:10021E00FDE49CFCE4CBF8C201EC700CCFCECDCC4F
:10022E00E824F8F870F38017C3EF33FFEE33FEEDDA
:10023E0033FDEC33FCEB33FB994002FB0FD8E9EBBB
:10024E00300105F8D0E0C448B201C0E00AEC4D4ED2
:10025E004F78207B0070C2EAB5190040BCC0E01296
:10026E0002D3D0F0D0E0200104C4C0E0C4B201C07B
:10027E00F0120062D0F0D5F0EB0200B212053E0192
:10028E004F5301C95801204C011C4201CD4F01D5DD
:0F029E004401D54901354301DB5501BF4601BF7E
:1002AD004501BF47037B5001242D01282E014B2B07
:1002BD00012C2301492003642A00E4480000014376
:1002CD003F3F3F00790AA2D5200314300509B9102C
:1002DD00020404B9080104A2D5200602500104202D
:1002ED0002689202B518005034C0E07F2030031927
:1002FD007F30A20272067205500F12032AC202C28B
:10030D0006C205C2087F30800F300503E9C0E01238
:10031D000079300503D0E0F9D0E0B518CC300517E1
:10032D007F30B9100C1200797F583004077F788028
:10033D0003B908031200793002057F2D0200797F81
:10034D00202008F87F2B2006F322920280CF286E02
:10035D00756C6C2900D20112003E3001F8C2017893
:10036D001830D50108F60200E42D5043495812000B
:10037D003E2403B405004001E49003769312006A15
:0D038D00743A12006AD2037518040201C907
:100570000205F0E493A3F8E493A34003F68001F2AC
:1005800008DFF48029E493A3F85407240CC8C3338C
:10059000C4540F4420C8834004F456800146F6DF5B
:1005A000E4800B010204081020408090066BE47E7A
:1005B000019360BCA3FF543F30E509541FFEE49350
:1005C000A360010ECF54C025E060A840B8E493A317
:1005D000FAE493A3F8E493A3C8C582C8CAC583CA42
:1005E000F0A3C8C582C8CAC583CADFE9DEE780BEFA
:010699000060
:1004E800BB010689828A83E0225002E722BBFE0212
:0904F800E32289828A83E4932245
:10050100BB010CE58229F582E5833AF583E02250AF
:1005110006E92582F8E622BBFE06E92582F8E222F9
:0D052100E58229F582E5833AF583E4932213
:10052E00FAE6FB0808E6F925F0F618E6CA3AF622CE
:10053E00D083D082F8E4937012740193700DA3A34C
:10054E0093F8740193F5828883E473740293686060
:06055E00EFA3A3A380DF60
:00000001FF
