:1008EC00544C323A202564200A00544C333A2025CB
:0408FC0064200A006A
:0607B700015B00015A0085
:10071300120864C2AF75D70B75D50CD2AF7BFF7AC5
:100723000879ECAFD7750B008F0C1200887BFF7A2A
:0F0733000879F6AFD5750B008F0C12008880DEA9
:10000E00EF1FAC0670011E4C600A7D0C7CA9DCFE55
:04001E00DDFC80EC99
:0100220022BB
:06093800C2A58F80D2A7CA
:08093E007F027EEFDEFEDFFC0C
:01094600228E
:0A096000C2A6120938C2A702093E20
:1007D600CFCDCFCECCCE1205057C007D0A12050505
:0407E600ED2430FFCF
:0A07EA00D2A6120938C2A702093E88
:1008AB00AE07BE0104ED148006BE0209ED243F44E1
:0608BB0080FF120960221B
:100900007F381209607F0C1209607F061209607F30
:040910000102096077
:0A096A00AC031208ABAF040207EA69
:060794008B548A558956C2
:10079A001208ABE4FDAB54AA55A9568D82758300A5
:0C07AA001204B4FF60061207EA0D80E99B
:0107B6002220
:0C06E0007F0AEA24FFFDE434FFFC7E00EA
:0806EC008E1C8F1D8C1E8D1F5A
:1006F4007F017E00E4FBEBC3951FE51E6480F87464
:0E0704008098500AAC1CAD1D1204F30B80E867
:0107120022C4
:0407F4008A478B485D
:1007F8001208ABAA49EAD39400400D1206E0AC47B0
:08080800AD481207D61A80ED7D
:0108100022C5
:100635001208ABC3EA64809480400B7F2B1207EA53
:100645008A438B44800E7F2D1207EAC3E49BF54451
:10065500E49AF543AA42EAD39400400D1206E0ACB1
:0906650043AD441207D61A80EDE2
:01066E002269
:04066F008A4C8B4DD9
:100673001208ABAA4EEAD3940040297F101206E277
:10068300AC4CAD4DCFCDCFCECCCE120505EF540F34
:10069300FEC3940AEE5004243080022437FF12076D
:0406A300EA1A80D1FE
:0106A7002230
:0406A8008A518B5296
:1006AC001208ABAA53EAD394004028EA24FFFDE4D5
:1006BC0034FFFC7F027E001206ECAC51AD52CFCD64
:1006CC00CFCECCCE120505EF54012430FF1207EA31
:0306DC001A80D2AF
:0106DF0022F8
:10081100E4FFE5B060010FE5B0640160027F02E52D
:0B082100B060027F03E5B060027F04BE
:01082C0022A9
:1008C1008558571208118F58E55765586007E55844
:0508D10070038557597A
:0108D60022FF
:09097400E5596005FFE4F5592284
:01097D002257
:10087D005389F0438901758A18758CFCC28DD28C11
:07088D00D2A9D2AFC2B922CB
:0607BD00015D00015C007B
:100894005389F0438901758A18758CFCC28DD28CFA
:0708A400D2A9D2AFC2B922B4
:1008D700EFD394B440027FB4EF75F02D8404C2A91E
:0408E700F55DD2A940
:0108EB0022EA
:03000B0002076C7D
:04076C00C0E0C0D059
:10077000758A33758CFEE55C7002D293E55CB55DDD
:0F07800002C293055CE55CC394284003755C00DE
:05078F00D0D0D0E032E3
:0C07C3000137000138000139000134004A
:0300030002038273
:10038200C0E0C0F0C083C082C0D075D000C000C041
:1003920001C002C003C004C005C006C007E5377033
:1003A20010753701FFFE12092F7F0112097E020428
:1003B20099E53764017048120987120928D3E53696
:1003C20094C8E53594324019E53694B0E535943653
:1003D200500F753702C2A57FF47E0112000E02048F
:1003E20099D3E53694FEE53594294010E53694E636
:1003F200E535942D5006753401020499020496E500
:100402003764026003020499120987120928D3E5AE
:1004120036946CE53594024037E53694F0E5359430
:1004220005502DE538131313541F243AF8C000E683
:10043200FFE5385407FEF87401088002C333D8FC84
:10044200F45FD000F60538E538C394204049803F78
:10045200D3E53694D6E53594064039E536945AE527
:1004620035940A502FE538131313541F243AF8C059
:1004720000E6FFE5385407FEF87401088002C33332
:10048200D8FC4FD000F60538E538C3942040081256
:1004920009478003753701D007D006D005D004D0B4
:1004A20003D002D001D000D0D0D082D083D0F0D0FF
:0204B200E03236
:06099800120955020914CA
:0E094700E4F538F537FFFE12092F753901224D
:10082D00E5396015E53DF4B53C0CE53BF4B53A060C
:0C083D00E4F539AF3C227F00227F00224E
:0B095500D288D2A8C289D2AFD2B8224B
:10091400538EBF53890F438910E4F58D758B99C2AB
:040924008FC28E22CE
:070928008E358F36E4FFFE5F
:09092F00AD07AC068C8D8D8B2206
:09097E00BF0103D28E22C28E22B9
:08098700AF8DEFFEAD8BEDFF1B
:01098F002245
:0607CF00013300013200BD
:10086400C209759850438E01438E0475D7C775D657
:09087400FE438E10D2ACD2AF227B
:080990002009FDD2098F992214
:10084900E532B533037F002274222532F8E612041B
:0B085900E1E53204540FF5327F01226C
:030023000207428F
:10074200C0E0C0D075D000C000309904C299C2097F
:10075200309810C29874222533F8A699E5330454D0
:0A0762000FF533D000D0D0D0E03204
:030000000205A94D
:0C05A900787FE4F6D8FD75815D0205F056
:1004B400BB010CE58229F582E5833AF583E02250FD
:1004C40006E92582F8E622BBFE06E92582F8E22247
:0D04D400E58229F582E5833AF583E4932261
:1004E100BB010689828A83F0225002F722BBFE01FA
:0204F100F322F4
:1004F300EF8DF0A4A8F0CF8CF0A428CE8DF0A42E1D
:02050300FE22D6
:10050500BC000BBE0029EF8DF084FFADF022E4CCDA
:10051500F875F008EF2FFFEE33FEEC33FCEE9DECA3
:10052500984005FCEE9DFE0FD5F0E9E4CEFD22EDE9
:10053500F8F5F0EE8420D21CFEADF075F008EF2F33
:10054500FFED33FD4007985006D5F0F222C398FD24
:050555000FD5F0EA22C1
:10002600E517240BF8E60517227808300702780B47
:10003600E475F00112057302055A2000EB7F2ED2FB
:10004600008018EF540F2490D43440D4FF30040BB2
:10005600EF24BFB41A0050032461FFE518600215AF
:1000660018051BE51B7002051A30070D7808E475A4
:10007600F001120573EF0204E10209907403D2073E
:100086008003E4C207F5178B088A09890AE4F51884
:10009600F51AF51BE51860077F2012006180F575DB
:1000A60019FFC201C200C202C203C205C206C208CB
:1000B60012002FFF700D3007057F00120072AF1B74
:1000C600AE1A22B4255FC2D5C20412002FFF24D077
:1000D600B40A00501A75F00A781830D50508B6FF2C
:1000E6000106C6A426F620D5047002D20380D924C0
:1000F600CFB41A00EF5004C2E5D204020272D20154
:1001060080C6D20080C0D20280BCD2D580BAD205C9
:1001160080B47F201200612002077401B5180040E8
:10012600F1120026FF12006102009AD208D2068060
:1001360095120026FB120026FA120026F94A4B7089
:100146000679437A037BFF20022EE518602A7E009B
:100156008E827583001204B460060EEE651970F087
:10016600C2D5EBC0E0EAC0E0E9C0E0EE1202B9D0C9
:10017600E0F9D0E0FAD0E0FB12055AFF60AAEBC026
:10018600E0EAC0E0E9C0E0120061D0E02401F9D065
:10019600E03400FAD0E0FBE5190460DCD519D9801B
:1001A600877BFF7A0279B5D202809C79108002792A
:1001B60008C206C2088008D2D5790A8004790AC224
:1001C600D5E519047002F519E4FAFDFEFF120026C2
:1001D600FC7B08200113120026FD7B1030000A125A
:1001E6000026FE120026FF7B20EC3382D592D550E6
:1001F60013C3E43000069FFFE49EFEE42001039D46
:10020600FDE49CFCE4CBF8C201EC700CCFCECDCC67
:10021600E824F8F870F38017C3EF33FFEE33FEEDF2
:1002260033FDEC33FCEB33FB994002FB0FD8E9EBD3
:10023600300105F8D0E0C448B201C0E00AEC4D4EEA
:100246004F78207B0070C2EAB5190040BCC0E012AE
:1002560002BBD0F0D0E0200104C4C0E0C4B201C0AB
:10026600F012004AD0F0D5F0EB02009A1205830195
:10027600375301B15801084C01044201B54F01BD85
:0F0286004401BD49011D4301C35501A74601A70E
:100295004501A747036350010C2D01102E01332B97
:1002A500011423013120034C2A00CC480000012B06
:1002B5003F3F3F00790AA2D5200314300509B91044
:1002C500020404B9080104A2D52006025001042045
:1002D50002689202B518005034C0E07F203003193F
:1002E5007F30A20272067205500F120312C202C2BB
:1002F50006C205C2087F30800F300503E9C0E01251
:100305000061300503D0E0F9D0E0B518CC30051711
:100315007F30B9100C1200617F583004077F788058
:1003250003B908031200613002057F2D0200617FC9
:10033500202008F87F2B2006F322920280CF286E1A
:10034500756C6C2900D2011200263001F8C20178C3
:100355001830D50108F60200CC2D5043495812003B
:10036500262403B405004001E490035E9312005275
:0D037500743A120052D2037518040201B14F
:1005B500020713E493A3F8E493A34003F68001F242
:1005C50008DFF48029E493A3F85407240CC8C33347
:1005D500C4540F4420C8834004F456800146F6DF16
:1005E500E4800B01020408102040809007B7E47EE8
:1005F500019360BCA3FF543F30E509541FFEE4930B
:10060500A360010ECF54C025E060A840B8E493A3D1
:10061500FAE493A3F8E493A3C8C582C8CAC583CAFC
:10062500F0A3C8C582C8CAC583CADFE9DEE780BEB4
:0107D5000023
:10055A00BB010689828A83E0225002E722BBFE029F
:09056A00E32289828A83E49322D2
:10057300FAE6FB0808E6F925F0F618E6CA3AF62289
:10058300D083D082F8E4937012740193700DA3A307
:1005930093F8740193F5828883E47374029368601B
:0605A300EFA3A3A380DF1B
:00000001FF
