:06092800256420090A000D
:03073700015C0062
:1007810012092E120832C2A51207C08F5CE55C6007
:10079100F77BFF7A097928750B00F50C1200888028
:0107A100E770
:10000E00EF1FAC0670011E4C600A7D0C7CA9DCFE55
:04001E00DDFC80EC99
:0100220022BB
:0608B500C2A58F80D2A74E
:0808BB007F027EEFDEFEDFFC90
:0108C3002212
:0A08F900C2A61208B5C2A70208BB90
:1007A200CFCDCFCECCCE1204FF7C007D0A1204FF47
:0407B200ED2430FF03
:0A07B600D2A61208B5C2A70208BBC4
:10084B00AE07BE0104ED148006BE0209ED243F4441
:06085B0080FF1208F922E3
:1008A1007F381208F97F0C1208F97F061208F97FC8
:0408B100010208F93F
:0A090300AC0312084BAF040207B664
:06075E008B568A578958F2
:1007640012084BE4FDAB56AA57A9588D8275830035
:0C0774001204AEFF60061207B60D80E90B
:010780002256
:0C06DA007F0AEA24FFFDE434FFFC7E00F0
:0806E6008E1C8F1D8C1E8D1F60
:1006EE007F017E00E4FBEBC3951FE51E6480F8746A
:0E06FE008098500AAC1CAD1D1204ED0B80E874
:01070C0022CA
:0407DE008A498B4A6F
:1007E20012084BAA4BEAD39400400D1206DAAC4928
:0807F200AD4A1207A21A80EDC6
:0107FA0022DC
:10062F0012084BC3EA64809480400B7F2B1207B6ED
:10063F008A458B46800E7F2D1207B6C3E49BF54685
:10064F00E49AF545AA44EAD39400400D1206DAACB9
:09065F0045AD461207A21A80ED18
:01066800226F
:040669008A4E8B4FDB
:10066D0012084BAA50EAD3940040297F101206DCE1
:10067D00AC4EAD4FCFCDCFCECCCE1204FFEF540F3D
:10068D00FEC3940AEE5004243080022437FF120773
:04069D00B61A80D138
:0106A1002236
:0406A2008A538B5498
:1006A60012084BAA55EAD394004028EA24FFFDE439
:1006B60034FFFC7F027E001206E6AC53AD54CFCD6C
:1006C600CFCECCCE1204FFEF54012430FF1207B672
:0306D6001A80D2B5
:0106D90022FE
:1007FB00E4FFE5B060010FE5B0640160027F02E544
:0B080B00B060027F03E5B060027F04D4
:0108160022BF
:10086100855A591207FB8F5AE559655A6007E55AAF
:05087100700385595BD6
:01087600225F
:09090D00E55B6005FFE4F55B22E7
:0109160022BE
:03073A00015D005E
:10087700EFD394B440027FB4EF75F02D8404C2A97E
:04088700F55DD2A9A0
:01088B00224A
:10073D0002370000013900043C00000000013A00BE
:0A074D00013B0001360002340000F9
:0300030002038273
:10038200C0E0C0F0C083C082C0D075D000C000C041
:1003920001C002C003C004C005C006C007E5397031
:1003A200057539018028E53964017032C28C120862
:1003B200E08E378F38D3E53894E0E537942E401835
:1003C200E5389480E537943E500E753902E4FFFE1D
:1003D2001208D7D28C0204931208D2020490E53993
:1003E20064026003020493C28C1208E08E378F38D5
:1003F200D3E53894F4E5379401403FE5389440E57D
:100402003794065035E4FFFE1208D7D28CE53A1332
:100412001313541F243CF8C000E6FFE53A5407FECC
:10042200F87401088002C333D8FCF45FD000F605EB
:100432003AE53AC3942040598047D3E53894A4E57D
:100442003794064043E53894F0E537940A5039E48E
:10045200FFFE1208D7D28CE53A131313541F243C23
:10046200F8C000E6FFE53A5407FEF874010880027E
:10047200C333D8FC4FD000F6053AE53AC394204086
:1004820010D2A51208C480091208D2753A00753933
:1004920000D007D006D005D004D003D002D001D0BE
:0C04A20000D0D0D082D083D0F0D0E03267
:06092E001208EE02088C25
:0E08C400E4F53AF539FFFE1208D7753B012224
:1007C000E53B6017E53FF4B53E0CE53DF4B53C066E
:0E07D000E4F53BAF3E22E4F53BFF227F002222
:0B08EE00D288D2A8C289D2AFD2B822B3
:10088C00538E7F5389F0438901E4F58AF58CC28D30
:05089C00C28CD2A9226C
:03000B00020917D0
:09091700C28C753900753A0032FA
:0508D200C28CE4FFFEF2
:0908D700AD07AC068C8C8D8A2261
:0D08E000AF8CEFAD8AF534EDF535AE34FF89
:0108ED0022E8
:0607570001330001320035
:10083200C209759850438E01438E0475D7C775D689
:09084200FE438E10D2ACD2AF22AD
:080920002009FDD2098F992284
:10081700E532B533037F002274222532F8E612044D
:0B082700DBE53204540FF5327F0122A4
:0300230002070DC4
:10070D00C0E0C0D075D000C000309904C299C209B4
:10071D00309810C29874222533F8A699E533045405
:0A072D000FF533D000D0D0D0E03239
:030000000205A353
:0C05A300787FE4F6D8FD75815D0205EA62
:1004AE00BB010CE58229F582E5833AF583E0225003
:1004BE0006E92582F8E622BBFE06E92582F8E2224D
:0D04CE00E58229F582E5833AF583E4932267
:1004DB00BB010689828A83F0225002F722BBFE0100
:0204EB00F322FA
:1004ED00EF8DF0A4A8F0CF8CF0A428CE8DF0A42E23
:0204FD00FE22DD
:1004FF00BC000BBE0029EF8DF084FFADF022E4CCE1
:10050F00F875F008EF2FFFEE33FEEC33FCEE9DECA9
:10051F00984005FCEE9DFE0FD5F0E9E4CEFD22EDEF
:10052F00F8F5F0EE8420D21CFEADF075F008EF2F39
:10053F00FFED33FD4007985006D5F0F222C398FD2A
:05054F000FD5F0EA22C7
:10002600E517240BF8E60517227808300702780B47
:10003600E475F00112056D0205542000EB7F2ED207
:10004600008018EF540F2490D43440D4FF30040BB2
:10005600EF24BFB41A0050032461FFE518600215AF
:1000660018051BE51B7002051A30070D7808E475A4
:10007600F00112056DEF0204DB0209207403D207BA
:100086008003E4C207F5178B088A09890AE4F51884
:10009600F51AF51BE51860077F2012006180F575DB
:1000A60019FFC201C200C202C203C205C206C208CB
:1000B60012002FFF700D3007057F00120072AF1B74
:1000C600AE1A22B4255FC2D5C20412002FFF24D077
:1000D600B40A00501A75F00A781830D50508B6FF2C
:1000E6000106C6A426F620D5047002D20380D924C0
:1000F600CFB41A00EF5004C2E5D204020272D20154
:1001060080C6D20080C0D20280BCD2D580BAD205C9
:1001160080B47F201200612002077401B5180040E8
:10012600F1120026FF12006102009AD208D2068060
:1001360095120026FB120026FA120026F94A4B7089
:100146000679437A037BFF20022EE518602A7E009B
:100156008E827583001204AE60060EEE651970F08D
:10016600C2D5EBC0E0EAC0E0E9C0E0EE1202B9D0C9
:10017600E0F9D0E0FAD0E0FB120554FF60AAEBC02C
:10018600E0EAC0E0E9C0E0120061D0E02401F9D065
:10019600E03400FAD0E0FBE5190460DCD519D9801B
:1001A600877BFF7A0279B5D202809C79108002792A
:1001B60008C206C2088008D2D5790A8004790AC224
:1001C600D5E519047002F519E4FAFDFEFF120026C2
:1001D600FC7B08200113120026FD7B1030000A125A
:1001E6000026FE120026FF7B20EC3382D592D550E6
:1001F60013C3E43000069FFFE49EFEE42001039D46
:10020600FDE49CFCE4CBF8C201EC700CCFCECDCC67
:10021600E824F8F870F38017C3EF33FFEE33FEEDF2
:1002260033FDEC33FCEB33FB994002FB0FD8E9EBD3
:10023600300105F8D0E0C448B201C0E00AEC4D4EEA
:100246004F78207B0070C2EAB5190040BCC0E012AE
:1002560002BBD0F0D0E0200104C4C0E0C4B201C0AB
:10026600F012004AD0F0D5F0EB02009A12057D019B
:10027600375301B15801084C01044201B54F01BD85
:0F0286004401BD49011D4301C35501A74601A70E
:100295004501A747036350010C2D01102E01332B97
:1002A500011423013120034C2A00CC480000012B06
:1002B5003F3F3F00790AA2D5200314300509B91044
:1002C500020404B9080104A2D52006025001042045
:1002D50002689202B518005034C0E07F203003193F
:1002E5007F30A20272067205500F120312C202C2BB
:1002F50006C205C2087F30800F300503E9C0E01251
:100305000061300503D0E0F9D0E0B518CC30051711
:100315007F30B9100C1200617F583004077F788058
:1003250003B908031200613002057F2D0200617FC9
:10033500202008F87F2B2006F322920280CF286E1A
:10034500756C6C2900D2011200263001F8C20178C3
:100355001830D50108F60200CC2D5043495812003B
:10036500262403B405004001E490035E9312005275
:0D037500743A120052D2037518040201B14F
:1005AF00020781E493A3F8E493A34003F68001F2DA
:1005BF0008DFF48029E493A3F85407240CC8C3334D
:1005CF00C4540F4420C8834004F456800146F6DF1C
:1005DF00E4800B0102040810204080900737E47E6E
:1005EF00019360BCA3FF543F30E509541FFEE49311
:1005FF00A360010ECF54C025E060A840B8E493A3D8
:10060F00FAE493A3F8E493A3C8C582C8CAC583CA02
:10061F00F0A3C8C582C8CAC583CADFE9DEE780BEBA
:01075D00009B
:10055400BB010689828A83E0225002E722BBFE02A5
:09056400E32289828A83E49322D8
:10056D00FAE6FB0808E6F925F0F618E6CA3AF6228F
:10057D00D083D082F8E4937012740193700DA3A30D
:10058D0093F8740193F5828883E473740293686021
:06059D00EFA3A3A380DF21
:00000001FF
