:03041800011F00C1
:10000E001205241204B71205BA120487D2A51204DF
:05001E00508F1F80F768
:1004FA00EF1FAC0670011E4C600A7D0C7CA9DCFE65
:04050A00DDFC80ECA8
:01050E0022CA
:06055A00C2A58F80D2A7AC
:080560007F027EEFDEFEDFFCEE
:010568002270
:0A058200C2A612055AC2A7020560C6
:1003DD00CFCDCFCECCCE1201A97C007D0A1201A9C2
:0403ED00ED2430FFCC
:0A03F100D2A612055AC2A702056049
:1004CE00AE07BE0104ED148006BE0209ED243F44C2
:0604DE0080FF12058222DE
:100524007F381205827F0C1205827F061205827FB6
:040534000102058239
:0A058C00AC031204CEAF040203F129
:0603BA008B408A418942DC
:1003C0001204CEE4FDAB40AA41A9428D82758300A0
:0C03D000120158FF60061203F10D80E9D5
:0103DC0022FE
:0C0335007F0AEA24FFFDE434FFFC7E0098
:080341008E3C8F3D8C3E8D3F88
:100349007F017E00E4FBEBC3953FE53E6480F874D2
:0E0359008098500AAC3CAD3D1201970B80E835
:010367002273
:0403FB008A1C8B1DB0
:1003FF001204CEAA1EEAD39400400D120335AC1C92
:08040F00AD1D1203DD1A80EDA2
:0104170022C2
:10028A001204CEC3EA64809480400B7F2B1203F1E0
:10029A008A308B31800E7F2D1203F1C3E49BF53136
:1002AA00E49AF530AA2FEAD39400400D120335AC34
:0902BA0030AD311203DD1A80EDB4
:0102C3002218
:0402C4008A348B35B8
:1002C8001204CEAA36EAD3940040297F10120337CD
:1002D800AC34AD35CFCDCFCECCCE1201A9EF540F73
:1002E800FEC3940AEE5004243080022437FF120320
:0402F800F11A80D1A6
:0102FC0022DF
:0402FD008A398B3A75
:100301001204CEAA3BEAD394004028EA24FFFDE47C
:1003110034FFFC7F027E00120341AC39AD3ACFCDF0
:10032100CFCECCCE1201A9EF54012430FF1203F13C
:030331001A80D25D
:0103340022A6
:10043400E4FFE5B060010FE5B0640160027F02E50E
:0B044400B060027F03E5B060027F049F
:01044F00228A
:1004E4008544431204348F44E54365446007E5447E
:0504F400700385434583
:0104F90022E0
:09059600E5456005FFE4F545228E
:01059F002239
:1004A0005389F0438901758A18758CFCC28DD28CF2
:0704B000D2A9D2AFC2B922AC
:06041B000147000146004C
:1004B7005389F0438901758A18758CFCC28DD28CDB
:0704C700D2A9D2AFC2B92295
:10050F00EFD394B440027FB4EF75F02D8404C2A9E9
:04051F00F547D2A921
:0105230022B5
:03000B000203925B
:04039200C0E0C0D037
:10039600758A33758CFEE5467002D293E546B547FD
:0F03A60002C2930546E546C394284003754600FE
:0503B500D0D0D0E032C1
:0C0421000124000125000126000121003B
:03000300020026D2
:10002600C0E0C0F0C083C082C0D075D000C000C0A0
:1000360001C002C003C004C005C006C007E52470A5
:1000460010752401FFFE12053F7F011205A0020173
:100056003DE524640170481205A9120538D3E5234D
:1000660094C8E52294324019E52394B0E5229436EB
:10007600500F752402C2A57FF47E011204FA020114
:100086003DD3E52394FEE52294294010E52394E62A
:10009600E522942D500675210102013D02013AE543
:1000A600246402600302013D1205A9120538D3E556
:1000B60023946CE52294024037E52394F0E52294DC
:1000C60005502DE525131313541F2427F8C000E609
:1000D600FFE5255407FEF87401088002C333D8FCF7
:1000E600F45FD000F60525E525C394204049803FFE
:1000F600D3E52394D6E52294064039E523945AE5C0
:1001060022940A502FE525131313541F2427F8C0F1
:1001160000E6FFE5255407FEF87401088002C333A4
:10012600D8FC4FD000F60525E525C39420400812DB
:1001360005698003752401D007D006D005D004D008
:1001460003D002D001D000D0D0D082D083D0F0D05E
:02015600E03295
:0605BA0012057702054A5C
:0E056900E4F525F524FFFE12053F752601225C
:10045000E5266015E52AF4B5290CE528F4B527064C
:0C046000E4F526AF29227F00227F002255
:0B057700D288C289D2A8D2AFD2B8222D
:10054A0053890F438910E4F58DF58BC28FC28E2231
:070538008E228F23E4FFFE79
:0B053F00AD07AC068C8DAF058F8B2242
:0905A000BF0103D28E22C28E229B
:0805A900AF8DEFFEAD8BEDFFFD
:0105B1002227
:06042D0001190001180096
:10048700C200759850438E01438E0475D7C775D641
:09049700FE438E10D2ACD2AF225C
:0805B2002000FDD2008F992208
:10046C00E518B519037F002274082518F8E6120167
:0B047C0085E51804540FF5187F0122DD
:030023000203686D
:10036800C0E0C0D075D000C000309904C299C20066
:10037800309810C29874082519F8A699E5190454FC
:0A0388000FF519D000D0D0D0E032FC
:030000000201FEFC
:0C01FE00787FE4F6D8FD758147020245C9
:10015800BB010CE58229F582E5833AF583E022505C
:1001680006E92582F8E622BBFE06E92582F8E222A6
:0D017800E58229F582E5833AF583E49322C0
:10018500BB010689828A83F0225002F722BBFE0159
:02019500F32253
:10019700EF8DF0A4A8F0CF8CF0A428CE8DF0A42E7C
:0201A700FE2236
:1001A900BC000BBE0029EF8DF084FFADF022E4CC3A
:1001B900F875F008EF2FFFEE33FEEC33FCEE9DEC03
:1001C900984005FCEE9DFE0FD5F0E9E4CEFD22ED49
:1001D900F8F5F0EE8420D21CFEADF075F008EF2F93
:1001E900FFED33FD4007985006D5F0F222C398FD84
:0501F9000FD5F0EA2221
:10020A0002000EE493A3F8E493A34003F68001F2FC
:10021A0008DFF48029E493A3F85407240CC8C333F5
:10022A00C4540F4420C8834004F456800146F6DFC4
:10023A00E4800B0102040810204080900418E47E38
:10024A00019360BCA3FF543F30E509541FFEE493B9
:10025A00A360010ECF54C025E060A840B8E493A380
:10026A00FAE493A3F8E493A3C8C582C8CAC583CAAB
:10027A00F0A3C8C582C8CAC583CADFE9DEE780BE63
:0104330000C8
:00000001FF
