:10064100020E000001190001170002100000010D47
:1006510000011600010A00020B000002080000015F
:0A0661001800021445070212000001
:100230001207391208FD1208511207611200067BDD
:10024000007A0079121208821205C48E108F1112E2
:1002500007CB8F19E51970030203101206947FC8AB
:100260007E00120898E5196512704875172DAF17B2
:100270001207ACC374689511FF74109510FE7C00D2
:100280007D0A1200CAEF24F4FFEE3401FE12089832
:10029000E4F517AF171207ACC374689511FF74101B
:1002A0009510FE7C007D141200CAEF2432FFE43E5C
:1002B000FE8045E51965137051751787AF17120752
:1002C000ACC374689511FF74109510FE7C007D0A14
:1002D0001200CAEF24F4FFEE3401FE1208987517DD
:1002E000B4AF171207ACC374689511FF7410951062
:1002F000FE7C007D141200CA12089875175AAF17B9
:100300001207AC7F2C7E01120898E4F5191208F64A
:100310001205C48E108F11C3E5119448E510940D99
:100320005005750D01800ED3E51194ACE510940DC8
:100330004003E4F50DE50A70030203D1E4F50BF583
:100340000CAE0BAF0CE4FCFD7BCF7A8AF9F8D3122C
:1003500001ED4078E50A60741207CB8F19E519604A
:1003600038D2A57F587E02120898AF1874142FF85F
:10037000A6190518E518C39402401E7B007A00797F
:100380001412070F7F647E001208987B007A0079B0
:1003900012120882E4F518F50A0509E5097002054C
:1003A00008D3E5099464E5089400400E30A504C222
:1003B000A58002D2A5E4F508F5097F017E001208A8
:1003C00098050CE50C7002050B020341E4F50AC226
:1003D000A5E538700EC2DEF50EF50F43870200006A
:1003E00002024F7F017E00120898050FE50F700290
:1003F000050ED3E50F9496E50E9400500302024FCC
:0E040000E4FFFE1208C0E4F539F53802024FA1
:03001300020838A8
:10083800C0E0C0D0E50AB40108750A007518008048
:0908480003750A01D0D0D0E032A2
:05000600D28AD2AA22FB
:100739007592FDE4F5917596FFF59575B2F0F5B1F1
:1007490075CAFFF5C9F590F5A0C2B4C2B5C2B6C263
:08075900B7F5C8C2A5D2A62223
:10069400E50D64016007D2A5C2A6D2DE22E4F516F8
:1006A400E5112448FFE51034F4FE7C007D6412005B
:1006B400CAAD16C3ED9FE49E5016D2A57F2C7E01D1
:1006C400120898C2A57F2C7E01120898051680D0C6
:1006D400C3E511941CE510940C50051208F6C2AF42
:0106E40022F3
:0708F600C2A5D2A6C2DE225A
:10066B0002360000013800043B0000000001390095
:0A067B00013A0001350002330000CF
:0300030002040EE6
:10040E00C0E0C0F0C083C082C0D075D000C000C0B4
:10041E0001C002C003C004C005C006C007E53870A5
:10042E00057538018028E53864017032C28C1208D7
:10043E00C98E368F37D3E53794E0E536942E4018C3
:10044E00E5379480E536943E500E753802E4FFFE93
:10045E001208C0D28C02051D1208BB02051AE5381F
:10046E006402600302051DC28C1208C98E368F37D6
:10047E00D3E53794F4E5369401403FE5379440E5F3
:10048E003694065035E4FFFE1208C0D28CE53913BF
:10049E001313541F243BF8C000E6FFE5395407FE42
:1004AE00F87401088002C333D8FCF45FD000F6055F
:1004BE0039E539C3942040578047D3E53794A4E5F6
:1004CE003694064041E53794F0E536940A5037E409
:1004DE00FFFE1208C0D28CE539131313541F243BB0
:1004EE00F8C000E6FFE5395407FEF87401088002F3
:1004FE00C333D8FC4FD000F60539E539C3942040FC
:10050E000E1208AD80091208BB753900753800D07F
:10051E0007D006D005D004D003D002D001D000D031
:0A052E00D0D082D083D0F0D0E032AC
:0608FD00120016020026A5
:0E08AD00E4F539F538FFFE1208C0753A012255
:1007CB00E53A6017E53EF4B53D0CE53CF4B53B0668
:0E07DB00E4F53AAF3D22E4F53AFF227F00221A
:0B001600D288D2A8C289D2AFD2B82293
:10002600538E7F5389F0438901E4F58AF58CC28D9E
:05003600C28CD2A922DA
:03000B000208E503
:0908E500C28C753800753900322F
:0508BB00C28CE4FFFE09
:0908C000AD07AC068C8C8D8A2278
:0D08C900AF8CEFAD8AF533EDF534AE33FFA3
:0108D60022FF
:08068500021C0000021A4E20C5
:1007610053A2CFE4F5D8F5E9F5F9F5D9851DEAE508
:100771001CF5FA75DA49851BEBE51AF5FB75DB49C2
:07078100D291D2DED2AF22BB
:03003B0002078831
:10078800C0E030D804C2D8C29130D915C2D9D291AC
:10079800C2DE75E90075F900851DEAE51CF5FAD297
:0407A800DED0E0328D
:1007AC00EFD394B440027FB4EF75F02D842401FF95
:0F07BC00E433FE7C017DF41200B88E1C8F1D22E9
:06068D0001320001310002
:10085100C200759850438E01438E0475D7C775D673
:09086100FE438E10D2ACD2AF228E
:0808EE002000FDD2008F9922C9
:1007E900E531B532037F002274212531F8E6120084
:0B07F90084E53104540FF5317F01222C
:030023000206E5ED
:1006E500C0E0C0D075D000C000309904C299C200E6
:1006F500309810C29874212532F8A699E532045431
:0A0705000FF532D000D0D0D0E03262
:1005C400900000E4F542F541F540F53F7DDA7C0406
:1005D400F5BDF5BE75BC880000000043BC08E5BC51
:1005E40030E4FB53BCEFAFBDEF75F004A4FFE5BEF0
:1005F4005403FBE5F0F583EF4BF582D39400E583D8
:100604009400402BAE04AF057C047D00120203C0AD
:1006140006C007AE83AF82AB07AA06E4F9F8D00799
:10062400D00612015B8F428E418D408C3F8009E4DD
:0C063400F542F541F540F53FAE41AF4204
:010640002297
:10089800EF1FAC0670011E4C600A7D0C7CA9DCFEC3
:0408A800DDFC80EC07
:0108AC002229
:0E08D700E4F5C7F5C5F5C675C3FF75C4FF226D
:04080400AD07AC068A
:1008080075C78275C5018CC38DC475C65A75C6A5D2
:0608180000AFC20208D788
:10086A00AD07AC0675C78275C5038CC38DC475C642
:08087A005A75C6A5000208D75B
:10081E00AB07AA0675C78275C5028AC38BC48DC283
:0A082E0075C65A75C6A5000208D76A
:10070F008B3F8A408941E4FFFE12086AAB3FAA4043
:10071F00A94112003EFD12081EAB3FAA40A941900D
:0A072F000001120057FD0F02081E22
:10088200E4FFFE120804EF1200847F0112080490B4
:060892000001EF020096D8
:03000000020538BE
:0C053800787FE4F6D8FD75814202057F53
:10003E00BB010689828A83E0225002E722BBFE02C0
:09004E00E32289828A83E49322F3
:10005700BB010CE58229F582E5833AF583E022505E
:1000670006E92582F8E622BBFE06E92582F8E222A8
:0D007700E58229F582E5833AF583E49322C2
:10008400BB010689828A83F0225002F722BBFE015B
:02009400F32255
:10009600F8BB010DE58229F582E5833AF583E8F0A0
:1000A600225006E92582C8F622BBFE05E92582C84C
:0200B600F22234
:1000B800EF8DF0A4A8F0CF8CF0A428CE8DF0A42E5C
:0200C800FE2216
:1000CA00BC000BBE0029EF8DF084FFADF022E4CC1A
:1000DA00F875F008EF2FFFEE33FEEC33FCEE9DECE3
:1000EA00984005FCEE9DFE0FD5F0E9E4CEFD22ED29
:1000FA00F8F5F0EE8420D21CFEADF075F008EF2F73
:10010A00FFED33FD4007985006D5F0F222C398FD63
:05011A000FD5F0EA2200
:10011F0075F008758200EF2FFFEE33FECD33CDCC97
:10012F0033CCC58233C5829BED9AEC99E58298401A
:10013F000CF582EE9BFEED9AFDEC99FC0FD5F0D6F7
:10014F00E4CEFBE4CDFAE4CCF9A88222B800C1B921
:10015F000059BA002DEC8BF084CFCECDFCE5F0CB5F
:10016F00F97818EF2FFFEE33FEED33FDEC33FCEB98
:10017F0033FB10D703994004EB99FB0FD8E5E4F953
:10018F00FA227818EF2FFFEE33FEED33FDEC33FC40
:10019F00C933C910D7059BE99A4007EC9BFCE99A34
:1001AF00F90FD8E0E4C9FAE4CCFB2275F010EF2F79
:1001BF00FFEE33FEED33FDCC33CCC833C810D70779
:1001CF009BEC9AE899400AED9BFDEC9AFCE899F8B4
:0E01DF000FD5F0DAE4CDFBE4CCFAE4C8F92247
:1001ED00EB9FF5F0EA9E42F0E99D42F0EC6480C889
:0601FD0064809845F02229
:10020300EC8EF0A4CCC5F0CCCDF8EFA4CEC5F02D88
:10021300FDE43CFCE8A42EC8C5F03DFDE43CFCEF46
:0D022300A4FFE5F028FEE43DFDE43CFC22D4
:10054400020230E493A3F8E493A34003F68001F29B
:1005540008DFF48029E493A3F85407240CC8C333B8
:10056400C4540F4420C8834004F456800146F6DF87
:10057400E4800B0102040810204080900641E47ED0
:10058400019360BCA3FF543F30E509541FFEE4937C
:10059400A360010ECF54C025E060A840B8E493A343
:1005A400FAE493A3F8E493A3C8C582C8CAC583CA6E
:1005B400F0A3C8C582C8CAC583CADFE9DEE780BE26
:010693000066
:00000001FF
