:040006006C666C00B8
:0307E300015C00B6
:100734001208F012088212097D120852D2A77FB85B
:100744007E0B12000EC2A77FB87E0B12000E7BFF39
:090754007A00790612008880E3A6
:10000E00EF1FAC0670011E4C600A7D0C7CA9DCFE55
:04001E00DDFC80EC99
:0100220022BB
:06092600C2A58F80D2A7DC
:08092C007F027EEFDEFEDFFC1E
:0109340022A0
:0A094E00C2A6120926C2A702092C56
:1007A800CFCDCFCECCCE1204FC7C007D0A1204FC47
:0407B800ED2430FFFD
:0A07BC00D2A6120926C2A702092CDA
:10089900AE07BE0104ED148006BE0209ED243F44F3
:0608A90080FF12094E223F
:1008F0007F3812094E7F0C12094E7F0612094E7F77
:040900000102094E99
:0A095800AC03120899AF040207BCBB
:060785008B548A558956D1
:10078B00120899E4FDAB54AA55A9568D82758300C6
:0C079B001204ABFF60061207BC0D80E9E1
:0107A700222F
:0C06D7007F0AEA24FFFDE434FFFC7E00F3
:0806E3008E1C8F1D8C1E8D1F63
:1006EB007F017E00E4FBEBC3951FE51E6480F8746D
:0E06FB008098500AAC1CAD1D1204EA0B80E87A
:0107090022CD
:0407C6008A478B488B
:1007CA00120899AA49EAD39400400D1206D7AC47F9
:0807DA00AD481207A81A80EDDA
:0107E20022F4
:10062C00120899C3EA64809480400B7F2B1207BC9C
:10063C008A438B44800E7F2D1207BCC3E49BF54488
:10064C00E49AF543AA42EAD39400400D1206D7ACC3
:09065C0043AD441207A81A80ED19
:010665002272
:040666008A4C8B4DE2
:10066A00120899AA4EEAD3940040297F101206D99B
:10067A00AC4CAD4DCFCDCFCECCCE1204FCEF540F47
:10068A00FEC3940AEE5004243080022437FF120776
:04069A00BC1A80D135
:01069E002239
:04069F008A518B529F
:1006A300120899AA53EAD394004028EA24FFFDE4F0
:1006B30034FFFC7F027E001206E3AC51AD52CFCD76
:1006C300CFCECCCE1204FCEF54012430FF1207BC72
:0306D3001A80D2B8
:0106D6002201
:1007FF00E4FFE5B060010FE5B0640160027F02E540
:0B080F00B060027F03E5B060027F04D0
:01081A0022BB
:1008AF008558571207FF8F58E55765586007E55869
:0508BF0070038557598C
:0108C4002211
:09096200E5596005FFE4F5592296
:01096B002269
:10086B005389F0438901758A18758CFCC28DD28C23
:07087B00D2A9D2AFC2B922DD
:0607E600015B00015A0056
:100882005389F0438901758A18758CFCC28DD28C0C
:07089200D2A9D2AFC2B922C6
:1008DB00EFD394B440027FB4EF75F02D8404C2A91A
:0408EB00F55BD2A93E
:0108EF0022E6
:03000B0002075D8C
:04075D00C0E0C0D068
:10076100758A33758CFEE55A7002D293E55AB55BF2
:0F07710002C293055AE55AC394284003755A00F3
:05078000D0D0D0E032F2
:0C07EC0001370001380001390001340021
:0300030002038273
:10038200C0E0C0F0C083C082C0D075D000C000C041
:1003920001C002C003C004C005C006C007E5377033
:1003A20010753701FFFE12090B7F0112096C02045E
:1003B20090E5376401703F1208C5120904D3E5368F
:1003C20094C8E53594324010E53694B0E53594365C
:1003D2005006753702020490D3E53694FEE5359453
:1003E200294010E53694E6E535942D500675340122
:1003F20002049002048DE537640260030204901245
:1004020008C5120904D3E536946CE53594024037E9
:10041200E53694F0E5359405502DE5381313135461
:100422001F243AF8C000E6FFE5385407FEF87401CD
:10043200088002C333D8FCF45FD000F60538E538F3
:10044200C394204049803FD3E53694D6E5359406DF
:100452004039E536945AE535940A502FE53813139E
:1004620013541F243AF8C000E6FFE5385407FEF89B
:100472007401088002C333D8FC4FD000F60538E57A
:1004820038C3942040081209358003753701D0071C
:10049200D006D005D004D003D002D001D000D0D0F5
:0904A200D082D083D0F0D0E0320A
:06097D00120943020916F5
:0E093500E4F538F537FFFE12090B7539012283
:10081B00E5396015E53DF4B53C0CE53BF4B53A061E
:0C082B00E4F539AF3C227F00227F002260
:0B094300D288C289D2A8D2AFD2B8225D
:1009160053890F438910E4F58DF58BC28FC28E2261
:070904008E358F36E4FFFE83
:0B090B00AD07AC068C8DAF058F8B2272
:09096C00BF0103D28E22C28E22CB
:1008C500AF8DEFFEAD8BEDFF7C007D5C1204FC7CF3
:0608D500007D640204EA4C
:0607F80001330001320094
:10085200C209759850438E01438E0475D7C775D669
:09086200FE438E10D2ACD2AF228D
:080975002009FDD2098F99222F
:10083700E532B533037F002274222532F8E612042D
:0B084700D8E53204540FF5327F012287
:0300230002070AC7
:10070A00C0E0C0D075D000C000309904C299C209B7
:10071A00309810C29874222533F8A699E533045408
:0A072A000FF533D000D0D0D0E0323C
:030000000205A056
:0C05A000787FE4F6D8FD75815C0205E769
:1004AB00BB010CE58229F582E5833AF583E0225006
:1004BB0006E92582F8E622BBFE06E92582F8E22250
:0D04CB00E58229F582E5833AF583E493226A
:1004D800BB010689828A83F0225002F722BBFE0103
:0204E800F322FD
:1004EA00EF8DF0A4A8F0CF8CF0A428CE8DF0A42E26
:0204FA00FE22E0
:1004FC00BC000BBE0029EF8DF084FFADF022E4CCE4
:10050C00F875F008EF2FFFEE33FEEC33FCEE9DECAC
:10051C00984005FCEE9DFE0FD5F0E9E4CEFD22EDF2
:10052C00F8F5F0EE8420D21CFEADF075F008EF2F3C
:10053C00FFED33FD4007985006D5F0F222C398FD2D
:05054C000FD5F0EA22CA
:10002600E517240BF8E60517227808300702780B47
:10003600E475F00112056A0205512000EB7F2ED20D
:10004600008018EF540F2490D43440D4FF30040BB2
:10005600EF24BFB41A0050032461FFE518600215AF
:1000660018051BE51B7002051A30070D7808E475A4
:10007600F00112056AEF0204D80209757403D2076B
:100086008003E4C207F5178B088A09890AE4F51884
:10009600F51AF51BE51860077F2012006180F575DB
:1000A60019FFC201C200C202C203C205C206C208CB
:1000B60012002FFF700D3007057F00120072AF1B74
:1000C600AE1A22B4255FC2D5C20412002FFF24D077
:1000D600B40A00501A75F00A781830D50508B6FF2C
:1000E6000106C6A426F620D5047002D20380D924C0
:1000F600CFB41A00EF5004C2E5D204020272D20154
:1001060080C6D20080C0D20280BCD2D580BAD205C9
:1001160080B47F201200612002077401B5180040E8
:10012600F1120026FF12006102009AD208D2068060
:1001360095120026FB120026FA120026F94A4B7089
:100146000679437A037BFF20022EE518602A7E009B
:100156008E827583001204AB60060EEE651970F090
:10016600C2D5EBC0E0EAC0E0E9C0E0EE1202B9D0C9
:10017600E0F9D0E0FAD0E0FB120551FF60AAEBC02F
:10018600E0EAC0E0E9C0E0120061D0E02401F9D065
:10019600E03400FAD0E0FBE5190460DCD519D9801B
:1001A600877BFF7A0279B5D202809C79108002792A
:1001B60008C206C2088008D2D5790A8004790AC224
:1001C600D5E519047002F519E4FAFDFEFF120026C2
:1001D600FC7B08200113120026FD7B1030000A125A
:1001E6000026FE120026FF7B20EC3382D592D550E6
:1001F60013C3E43000069FFFE49EFEE42001039D46
:10020600FDE49CFCE4CBF8C201EC700CCFCECDCC67
:10021600E824F8F870F38017C3EF33FFEE33FEEDF2
:1002260033FDEC33FCEB33FB994002FB0FD8E9EBD3
:10023600300105F8D0E0C448B201C0E00AEC4D4EEA
:100246004F78207B0070C2EAB5190040BCC0E012AE
:1002560002BBD0F0D0E0200104C4C0E0C4B201C0AB
:10026600F012004AD0F0D5F0EB02009A12057A019E
:10027600375301B15801084C01044201B54F01BD85
:0F0286004401BD49011D4301C35501A74601A70E
:100295004501A747036350010C2D01102E01332B97
:1002A500011423013120034C2A00CC480000012B06
:1002B5003F3F3F00790AA2D5200314300509B91044
:1002C500020404B9080104A2D52006025001042045
:1002D50002689202B518005034C0E07F203003193F
:1002E5007F30A20272067205500F120312C202C2BB
:1002F50006C205C2087F30800F300503E9C0E01251
:100305000061300503D0E0F9D0E0B518CC30051711
:100315007F30B9100C1200617F583004077F788058
:1003250003B908031200613002057F2D0200617FC9
:10033500202008F87F2B2006F322920280CF286E1A
:10034500756C6C2900D2011200263001F8C20178C3
:100355001830D50108F60200CC2D5043495812003B
:10036500262403B405004001E490035E9312005275
:0D037500743A120052D2037518040201B14F
:1005AC00020734E493A3F8E493A34003F68001F22A
:1005BC0008DFF48029E493A3F85407240CC8C33350
:1005CC00C4540F4420C8834004F456800146F6DF1F
:1005DC00E4800B01020408102040809007E3E47EC5
:1005EC00019360BCA3FF543F30E509541FFEE49314
:1005FC00A360010ECF54C025E060A840B8E493A3DB
:10060C00FAE493A3F8E493A3C8C582C8CAC583CA05
:10061C00F0A3C8C582C8CAC583CADFE9DEE780BEBD
:0107FE0000FA
:10055100BB010689828A83E0225002E722BBFE02A8
:09056100E32289828A83E49322DB
:10056A00FAE6FB0808E6F925F0F618E6CA3AF62292
:10057A00D083D082F8E4937012740193700DA3A310
:10058A0093F8740193F5828883E473740293686024
:06059A00EFA3A3A380DF24
:00000001FF
