:06096F00256420090A00C6
:0307AC00015C00ED
:10075700E4F5B275B104120975120884D2A512081E
:100767004D8F5CE55C60F5C28C7BFF7A09796F750C
:0B0777000D00F50E120088D28C80E10E
:10000E00EF1FAC0670011E4C600A7D0C7CA9DCFE55
:04001E00DDFC80EC99
:0100220022BB
:06090500C2A58F80D2A7FD
:08090B007F027EEFDEFEDFFC3F
:0109130022C1
:0A092D00C2A6120905C2A702090BB9
:1007F600CFCDCFCECCCE1205087C007D0A120508DF
:04080600ED2430FFAE
:0A080A00D2A6120905C2A702090BCD
:10089D00AE07BE0104ED148006BE0209ED243F44EF
:0608AD0080FF12092D225C
:1008DE007F3812092D7F0C12092D7F0612092D7FEC
:0408EE000102092DCD
:0A093700AC0312089DAF0402080A89
:0607D3008B5D8A5E895F68
:1007D90012089DE4FDAB5DAA5EA95F8D8275830059
:0C07E9001204B7FF600612080A0D80E938
:0107F50022E1
:0C0724007F0AEA24FFFDE434FFFC7E00A5
:080730008E568F578C588D592D
:100738007F017E00E4FBEBC39559E5586480F874AB
:0E0748008098500AAC56AD571204F60B80E8AC
:010756002280
:040814008A498B4A38
:1008180012089DAA4BEAD39400400D120724AC4954
:08082800AD4A1207F61A80ED3B
:0108300022A5
:1006790012089DC3EA64809480400B7F2B12080AFC
:100689008A458B46800E7F2D12080AC3E49BF546E6
:10069900E49AF545AA44EAD39400400D120724AC24
:0906A90045AD461207F61A80ED7A
:0106B2002225
:0406B3008A4E8B4F91
:1006B70012089DAA50EAD3940040297F10120726FA
:1006C700AC4EAD4FCFCDCFCECCCE120508EF540FE9
:1006D700FEC3940AEE5004243080022437FF120828
:0406E7000A1A80D19A
:0106EB0022EC
:0406EC008A538B544E
:1006F00012089DAA55EAD394004028EA24FFFDE49D
:1007000034FFFC7F027E00120730AC53AD54CFCDD6
:10071000CFCECCCE120508EF54012430FF12080AC8
:030720001A80D26A
:0107230022B3
:10083100E4FFE5B060010FE5B0640160027F02E50D
:0B084100B060027F03E5B060027F049E
:01084C002289
:1008B3008561601208318F61E56065616007E561FC
:0508C300700385606276
:0108C800220D
:09094100E5626005FFE4F56222A5
:01094A00228A
:0307AF00011E0028
:1008C900EFD394B440027FB4EF75F02D8404C2A92C
:0408D900F51ED2A98D
:0108DD0022F8
:1007B2000239000002350000013700043C0000004D
:0A07C20000013800013B0001340083
:0300030002038273
:10038200C0E0C0F0C083C082C0D075D000C000C041
:1003920001C002C003C004C005C006C007B2A3E585
:1003A200377005753701802AE53764017034FF1212
:1003B200095512095E8E358F36D3E53694E0E53560
:1003C200942E401BE5369498E535943A50117537D2
:1003D20002E4FFFE12094B7F0112095502049C023E
:1003E2000494E5376402600302049CFF120955126B
:1003F200095E8E358F36D3E5369458E53594024042
:1004020042E5369440E53594065038E4FFFE120981
:100412004B7F01120955E538131313541F243CF87E
:10042200C000E6FFE5385407FEF87401088002C3F5
:1004320033D8FCF45FD000F60538E538C394204089
:1004420059804AD3E536946CE53594074044E53645
:100452009492E5359409503AE4FFFE12094B7F016C
:10046200120955E538131313541F243CF8C000E653
:10047200FFE5385407FEF87401088002C333D8FC44
:100482004FD000F60538E538C39420400D12091408
:100492008008E4FF120955753700D007D006D00551
:1004A200D004D003D002D001D000D0D0D082D083EB
:0504B200D0F0D0E032A3
:060975001209220208F243
:0E091400E4F538F537FFFE12094B753B012262
:10084D00E53B6015E53FF4B53E0CE53DF4B53C06E2
:0C085D00E4F53BAF3E227F00227F00222A
:0B092200D288D2A8C289D2AFD2B8227E
:1008F200438E805389F0438901E4F58AF58CC28DD9
:03090200C28C2282
:03000B00020638B2
:10063800C0E0C0F0C083C082C0D075D000C000C088
:1006480001C002C003C004C005C006C007C2A57F20
:10065800F47E0112000ED007D006D005D004D003D6
:10066800D002D001D000D0D0D082D083D0F0D0E05A
:01067800324F
:0A094B008E088F09E4F58CF58A226E
:09095500BF0103D28C22C28C22E6
:08095E00AF8CEFFEAD8AEDFF46
:01096600226E
:0607CC00013300013200C0
:10088400C209759850438E01438E0475D7C775D637
:09089400FE438E10D2ACD2AF225B
:080967002009FDD2098F99223D
:10086900E532B533037F002274222532F8E61204FB
:0B087900E4E53204540FF5327F012249
:030023000207824F
:10078200C0E0C0D075D000C000309904C299C2093F
:10079200309810C29874222533F8A699E533045490
:0A07A2000FF533D000D0D0D0E032C4
:030000000205AC4A
:0C05AC00787FE4F6D8FD7581620205F34B
:1004B700BB010CE58229F582E5833AF583E02250FA
:1004C70006E92582F8E622BBFE06E92582F8E22244
:0D04D700E58229F582E5833AF583E493225E
:1004E400BB010689828A83F0225002F722BBFE01F7
:0204F400F322F1
:1004F600EF8DF0A4A8F0CF8CF0A428CE8DF0A42E1A
:02050600FE22D3
:10050800BC000BBE0029EF8DF084FFADF022E4CCD7
:10051800F875F008EF2FFFEE33FEEC33FCEE9DECA0
:10052800984005FCEE9DFE0FD5F0E9E4CEFD22EDE6
:10053800F8F5F0EE8420D21CFEADF075F008EF2F30
:10054800FFED33FD4007985006D5F0F222C398FD21
:050558000FD5F0EA22BE
:10002600E519240DF8E6051922780A300702780D3D
:10003600E475F00112057602055D2000EB7F2ED2F5
:10004600008018EF540F2490D43440D4FF30040BB2
:10005600EF24BFB41A0050032461FFE51A600215AD
:100066001A051DE51D7002051C30070D780AE4759A
:10007600F001120576EF0204E40209677403D20761
:100086008003E4C207F5198B0A8A0B890CE4F51A7A
:10009600F51CF51DE51A60077F2012006180F575D5
:1000A6001BFFC201C200C202C203C205C206C208C9
:1000B60012002FFF700D3007057F00120072AF1D72
:1000C600AE1C22B4255FC2D5C20412002FFF24D075
:1000D600B40A00501A75F00A781A30D50508B6FF2A
:1000E6000106C6A426F620D5047002D20380D924C0
:1000F600CFB41A00EF5004C2E5D204020272D20154
:1001060080C6D20080C0D20280BCD2D580BAD205C9
:1001160080B47F201200612002077401B51A0040E6
:10012600F1120026FF12006102009AD208D2068060
:1001360095120026FB120026FA120026F94A4B7089
:100146000679437A037BFF20022EE51A602A7E0099
:100156008E827583001204B760060EEE651B70F082
:10016600C2D5EBC0E0EAC0E0E9C0E0EE1202B9D0C9
:10017600E0F9D0E0FAD0E0FB12055DFF60AAEBC023
:10018600E0EAC0E0E9C0E0120061D0E02401F9D065
:10019600E03400FAD0E0FBE51B0460DCD51BD98017
:1001A600877BFF7A0279B5D202809C79108002792A
:1001B60008C206C2088008D2D5790A8004790AC224
:1001C600D5E51B047002F51BE4FAFDFEFF120026BE
:1001D600FC7B08200113120026FD7B1030000A125A
:1001E6000026FE120026FF7B20EC3382D592D550E6
:1001F60013C3E43000069FFFE49EFEE42001039D46
:10020600FDE49CFCE4CBF8C201EC700CCFCECDCC67
:10021600E824F8F870F38017C3EF33FFEE33FEEDF2
:1002260033FDEC33FCEB33FB994002FB0FD8E9EBD3
:10023600300105F8D0E0C448B201C0E00AEC4D4EEA
:100246004F78207B0070C2EAB51B0040BCC0E012AC
:1002560002BBD0F0D0E0200104C4C0E0C4B201C0AB
:10026600F012004AD0F0D5F0EB02009A1205860192
:10027600375301B15801084C01044201B54F01BD85
:0F0286004401BD49011D4301C35501A74601A70E
:100295004501A747036350010C2D01102E01332B97
:1002A500011423013120034C2A00CC480000012B06
:1002B5003F3F3F00790AA2D5200314300509B91044
:1002C500020404B9080104A2D52006025001042045
:1002D50002689202B51A005034C0E07F203003193D
:1002E5007F30A20272067205500F120312C202C2BB
:1002F50006C205C2087F30800F300503E9C0E01251
:100305000061300503D0E0F9D0E0B51ACC3005170F
:100315007F30B9100C1200617F583004077F788058
:1003250003B908031200613002057F2D0200617FC9
:10033500202008F87F2B2006F322920280CF286E1A
:10034500756C6C2900D2011200263001F8C20178C3
:100355001A30D50108F60200CC2D50434958120039
:10036500262403B405004001E490035E9312005275
:0D037500743A120052D203751A040201B14D
:1005B800020757E493A3F8E493A34003F68001F2FB
:1005C80008DFF48029E493A3F85407240CC8C33344
:1005D800C4540F4420C8834004F456800146F6DF13
:1005E800E4800B01020408102040809007ACE47EF0
:1005F800019360BCA3FF543F30E509541FFEE49308
:10060800A360010ECF54C025E060A840B8E493A3CE
:10061800FAE493A3F8E493A3C8C582C8CAC583CAF9
:10062800F0A3C8C582C8CAC583CADFE9DEE780BEB1
:0107D2000026
:10055D00BB010689828A83E0225002E722BBFE029C
:09056D00E32289828A83E49322CF
:10057600FAE6FB0808E6F925F0F618E6CA3AF62286
:10058600D083D082F8E4937012740193700DA3A304
:1005960093F8740193F5828883E473740293686018
:0605A600EFA3A3A380DF18
:00000001FF
