:06090200256420090A0033
:0306E900015A00B3
:10073E00E4F5B275B1041209081207FDC2A512073D
:10074E00A88F5AE55A60F7D2A57BFF7A0979027510
:09075E000B00F50C12008880E587
:10084200EF1FAC0670011E4C600A7D0C7CA9DCFE19
:04085200DDFC80EC5D
:01085600227F
:06089300C2A58F80D2A770
:080899007F027EEFDEFEDFFCB2
:0108A1002234
:0A08C900C2A6120893C2A702089904
:10078A00CFCDCFCECCCE1204DB7C007D0A1204DBA7
:04079A00ED2430FF1B
:0A079E00D2A6120893C2A702089920
:10081600AE07BE0104ED148006BE0209ED243F4476
:0608260080FF1208C92248
:10086C007F381208C97F0C1208C97F061208C97F8D
:04087C00010208C9A4
:0A08D300AC03120816AF0402079EE2
:060767008B5B8A5C895DDA
:10076D00120816E4FDAB5BAA5CA95D8D8275830052
:0C077D0012048AFF600612079E0D80E93E
:01078900224D
:0C06B6007F0AEA24FFFDE434FFFC7E0014
:0806C2008E1C8F1D8C1E8D1F84
:1006CA007F017E00E4FBEBC3951FE51E6480F8748E
:0E06DA008098500AAC1CAD1D1204C90B80E8BC
:0106E80022EF
:040006008A4B8B4C4A
:10000A00120816AA4DEAD39400400D1206B6AC4B5C
:08001A00AD4C12078A1A80EDBB
:0100220022BB
:10060B00120816C3EA64809480400B7F2B12079E5E
:10061B008A478B48800E7F2D12079EC3E49BF548BB
:10062B00E49AF547AA46EAD39400400D1206B6ACFD
:09063B0047AD4812078A1A80ED50
:010644002293
:040645008A508B51FB
:10064900120816AA52EAD3940040297F101206B85C
:10065900AC50AD51CFCDCFCECCCE1204DBEF540F81
:10066900FEC3940AEE5004243080022437FF120797
:040679009E1A80D174
:01067D00225A
:04067E008A558B56B8
:10068200120816AA57EAD394004028EA24FFFDE490
:1006920034FFFC7F027E001206C2AC55AD56CFCDB0
:1006A200CFCECCCE1204DBEF54012430FF12079ED2
:0306B2001A80D2D9
:0106B5002222
:1007C600E4FFE5B060010FE5B0640160027F02E579
:0B07D600B060027F03E5B060027F040A
:0107E10022F5
:10082C00855F5E1207C68F5FE55E655F6007E55FFB
:05083C007003855E6001
:010841002294
:0908DD00E5606005FFE4F560220E
:0108E60022EF
:0306EC00016300A7
:10085700EFD394B440027FB4EF75F02D8404C2A99E
:04086700F563D2A9BA
:01086B00226A
:1006EF00023B000002370000013900043E00000009
:0E06FF0000013A00013D000136000234000007
:0300030002038273
:10038200C0E0C0D075D000C000C005C006C007C222
:100392008CE539700C753901F58CF58AD28C020422
:1003A2007DE53964017033AF8CEFAD8AF537EDF539
:1003B20038D3E53894E0E537942E4018E538948038
:1003C200E537943E500E753902758C00758A00D25D
:1003D2008C02047D75390002047DE53964026003F4
:1003E20002047DAF8CEFAD8AF537EDF538D3E538F1
:1003F20094F4E5379401402BE5389440E5379406B0
:100402005021E53A131313541F243EF8C000E6FFAF
:10041200E53A5407FEF87401088002C333D8FCF4AD
:100422005F8033D3E53894A4E53794064037E53846
:1004320094F0E537940A502DE53A131313541F2410
:100442003EF8C000E6FFE53A5407FEF87401088062
:1004520002C333D8FC4FD000F6053A758C00758A7A
:1004620000D28C8006753900753A00E53AC39420B3
:100472004009753A00753900753D01D007D006D0A4
:0804820005D000D0D0D0E0321B
:060908001208BE02088087
:0E08A200E4F53AF539FFFE1208E7753D012234
:1007A800E53D6017D2A5E541F4B5400CE53FF4B549
:0E07B8003E06E4F53DAF40227F00227F002286
:0B08BE00D288D2A8C289D2AFD2B822E3
:10088000538E7F5389F0438901E4F58AF58CC28D3C
:03089000C28C22F5
:0A08E7008E618F62E4F58CF58A2221
:0908F100BF0103D28C22C28C224B
:0D08B000AF8CEFAD8AF534EDF535AE34FFB9
:0108BD002218
:06070D000133000132007F
:1007FD00C209759850438E01438E0475D7C775D6BF
:09080D00FE438E10D2ACD2AF22E2
:0808FA002009FDD2098F9922AB
:1007E200E532B533037F002274222532F8E6120483
:0B07F200B7E53204540FF5327F0122FE
:03002300020714BD
:10071400C0E0C0D075D000C000309904C299C209AD
:10072400309810C29874222533F8A699E5330454FE
:0A0734000FF533D000D0D0D0E03232
:0300000002057F77
:0C057F00787FE4F6D8FD7581630205C6A4
:10048A00BB010CE58229F582E5833AF583E0225027
:10049A0006E92582F8E622BBFE06E92582F8E22271
:0D04AA00E58229F582E5833AF583E493228B
:1004B700BB010689828A83F0225002F722BBFE0124
:0204C700F3221E
:1004C900EF8DF0A4A8F0CF8CF0A428CE8DF0A42E47
:0204D900FE2201
:1004DB00BC000BBE0029EF8DF084FFADF022E4CC05
:1004EB00F875F008EF2FFFEE33FEEC33FCEE9DECCE
:1004FB00984005FCEE9DFE0FD5F0E9E4CEFD22ED14
:10050B00F8F5F0EE8420D21CFEADF075F008EF2F5D
:10051B00FFED33FD4007985006D5F0F222C398FD4E
:05052B000FD5F0EA22EB
:10002600E517240BF8E60517227808300702780B47
:10003600E475F0011205490205302000EB7F2ED24F
:10004600008018EF540F2490D43440D4FF30040BB2
:10005600EF24BFB41A0050032461FFE518600215AF
:1000660018051BE51B7002051A30070D7808E475A4
:10007600F001120549EF0204B70208FA7403D20729
:100086008003E4C207F5178B088A09890AE4F51884
:10009600F51AF51BE51860077F2012006180F575DB
:1000A60019FFC201C200C202C203C205C206C208CB
:1000B60012002FFF700D3007057F00120072AF1B74
:1000C600AE1A22B4255FC2D5C20412002FFF24D077
:1000D600B40A00501A75F00A781830D50508B6FF2C
:1000E6000106C6A426F620D5047002D20380D924C0
:1000F600CFB41A00EF5004C2E5D204020272D20154
:1001060080C6D20080C0D20280BCD2D580BAD205C9
:1001160080B47F201200612002077401B5180040E8
:10012600F1120026FF12006102009AD208D2068060
:1001360095120026FB120026FA120026F94A4B7089
:100146000679437A037BFF20022EE518602A7E009B
:100156008E8275830012048A60060EEE651970F0B1
:10016600C2D5EBC0E0EAC0E0E9C0E0EE1202B9D0C9
:10017600E0F9D0E0FAD0E0FB120530FF60AAEBC050
:10018600E0EAC0E0E9C0E0120061D0E02401F9D065
:10019600E03400FAD0E0FBE5190460DCD519D9801B
:1001A600877BFF7A0279B5D202809C79108002792A
:1001B60008C206C2088008D2D5790A8004790AC224
:1001C600D5E519047002F519E4FAFDFEFF120026C2
:1001D600FC7B08200113120026FD7B1030000A125A
:1001E6000026FE120026FF7B20EC3382D592D550E6
:1001F60013C3E43000069FFFE49EFEE42001039D46
:10020600FDE49CFCE4CBF8C201EC700CCFCECDCC67
:10021600E824F8F870F38017C3EF33FFEE33FEEDF2
:1002260033FDEC33FCEB33FB994002FB0FD8E9EBD3
:10023600300105F8D0E0C448B201C0E00AEC4D4EEA
:100246004F78207B0070C2EAB5190040BCC0E012AE
:1002560002BBD0F0D0E0200104C4C0E0C4B201C0AB
:10026600F012004AD0F0D5F0EB02009A12055901BF
:10027600375301B15801084C01044201B54F01BD85
:0F0286004401BD49011D4301C35501A74601A70E
:100295004501A747036350010C2D01102E01332B97
:1002A500011423013120034C2A00CC480000012B06
:1002B5003F3F3F00790AA2D5200314300509B91044
:1002C500020404B9080104A2D52006025001042045
:1002D50002689202B518005034C0E07F203003193F
:1002E5007F30A20272067205500F120312C202C2BB
:1002F50006C205C2087F30800F300503E9C0E01251
:100305000061300503D0E0F9D0E0B518CC30051711
:100315007F30B9100C1200617F583004077F788058
:1003250003B908031200613002057F2D0200617FC9
:10033500202008F87F2B2006F322920280CF286E1A
:10034500756C6C2900D2011200263001F8C20178C3
:100355001830D50108F60200CC2D5043495812003B
:10036500262403B405004001E490035E9312005275
:0D037500743A120052D2037518040201B14F
:10058B0002073EE493A3F8E493A34003F68001F241
:10059B0008DFF48029E493A3F85407240CC8C33371
:1005AB00C4540F4420C8834004F456800146F6DF40
:1005BB00E4800B01020408102040809006E9E47EE1
:1005CB00019360BCA3FF543F30E509541FFEE49335
:1005DB00A360010ECF54C025E060A840B8E493A3FC
:1005EB00FAE493A3F8E493A3C8C582C8CAC583CA27
:1005FB00F0A3C8C582C8CAC583CADFE9DEE780BEDF
:0107130000E5
:10053000BB010689828A83E0225002E722BBFE02C9
:09054000E32289828A83E49322FC
:10054900FAE6FB0808E6F925F0F618E6CA3AF622B3
:10055900D083D082F8E4937012740193700DA3A331
:1005690093F8740193F5828883E473740293686045
:06057900EFA3A3A380DF45
:00000001FF
