:0304EE00013500D5
:100259001204DA12045512057B1204228F35E53592
:1002690060F7FB7A007516027D017F021202EAE54A
:1002790035B447057F5A120569E535B407117F2D55
:100289001205697F2C7E011204C57F5A120569E5A2
:1002990035B445C57F871205697F2C7E011204C5D7
:0702A9007F5A12056980B2C3
:1004C500EF1FAC0670011E4C600A7D017CF8DCFE56
:0404D500DDFC80ECDE
:0104D9002200
:06052300C2A58F80D2A7E3
:080529007F027EEFDEFEDFFC25
:0105310022A7
:0A054B00C2A6120523C2A70205296B
:1003E700CFCDCFCECCCE1201787C007D0A1201781A
:0403F700ED2430FFC2
:0A03FB00D2A6120523C2A7020529AD
:10048300AE07BE0104ED148006BE0209ED243F440D
:0604930080FF12054B2260
:1004DA007F3812054B7F0C12054B7F0612054B7FA6
:0404EA000102054BBB
:0A055500AC03120483AF040203FBA1
:0603C4008B2C8A2D892E0E
:1003CA00120483E4FDAB2CAA2DA92E8D827583001D
:0C03DA00120139FF60061203FB0D80E9E0
:0103E60022F4
:0C0391007F0AEA24FFFDE434FFFC7E003C
:08039D008E178F188C198D1AC0
:1003A5007F017E00E4FBEBC3951AE5196480F874C0
:0E03B5008098500AAC17AD181201660B80E854
:0103C3002217
:040405008A248B2595
:10040900120483AA26EAD39400400D120391AC2466
:08041900AD251203E71A80ED86
:0104210022B8
:1002B000120483C3EA64809480400B7F2B1203FBFB
:1002C0008A208B21800E7F2D1203FBC3E49BF52136
:1002D000E49AF520AA1FEAD39400400D120391ACD2
:0902E00020AD211203E71A80EDA4
:0102E90022F2
:0402EA008A148B15D2
:1002EE00120483AA16EAD3940040297F10120393B6
:1002FE00AC14AD15CFCDCFCECCCE120178EF540FBE
:10030E00FEC3940AEE5004243080022437FF1203F9
:04031E00FB1A80D175
:0103220022B8
:040323008A298B2A6E
:10032700120483AA2BEAD394004028EA24FFFDE4B1
:1003370034FFFC7F027E0012039DAC29AD2ACFCD8E
:10034700CFCECCCE120178EF54012430FF1203FB3D
:030357001A80D237
:01035A002280
:10049900E4FF20B1010F20B0027F0220B2027F03E6
:0504A90020B3027F04F6
:0104AE00222B
:1004AF0085302F1204998F30E52F65306007E530C6
:0504BF007003852F31E0
:0104C4002215
:09055F00E5316005FFE4F53122ED
:010568002270
:10043E005389F0438901758A18758CFCC28DD28C54
:07044E00D2A9D2AFC2B9220E
:0304F100013400D3
:100455005389F0438901758A18758CFCC28DD28C3D
:07046500D2A9D2AFC2B922F7
:09056900EF75F02D8404F5342235
:03000B0002035B92
:04035B00C0E0C0D06E
:10035F00758A33758CFE0533E53370020532C3940D
:10036F0028E53294004006753200753300D3E5342A
:0D037F009533E495324004D2938002C2937E
:05038C00D0D0D0E032EA
:0C04F400010B00010C00010D00010800CC
:0300030002000EEA
:10000E00C0E0C0F0C083C082C0D075D000C000C0B8
:10001E0001C002C003C004C005C006C007E50B70D6
:10002E0010750B01FFFE1205087F01120572020109
:10003E001EE50B6401703F12046C120501D3E50A34
:10004E0094C8E50994324010E50A94B0E509943657
:10005E005006750B0202011ED3E50A94FEE50994C3
:10006E00294010E50A94E6E509942D50067508011D
:10007E0002011E02011BE50B6402600302011E1247
:10008E00046C120501D3E50A946CE509940240381C
:10009E00E50A94F0E5099405502EE50C131313545C
:1000AE001F240EF8C000E6FFE50C5407FE7401A8ED
:1000BE0006088002C333D8FCF45FD000F6050CE5C9
:1000CE000CC39420404A8040D3E50A94D6E50994A7
:1000DE0006403AE50A945AE509940A5030E50C13A5
:1000EE001313541F240EF8C000E6FFE50C5407FE50
:1000FE007401A806088002C333D8FC4FD000F60561
:10010E000CE50CC3942040081205328003750B01D8
:10011E00D007D006D005D004D003D002D001D00035
:0B012E00D0D0D082D083D0F0D0E032DF
:06057B0012054002051309
:0E053200E4F50CF50BFFFE120508750D012215
:10042200E50D6015E511F4B5100CE50FF4B50E06F7
:0C043200E4F50DAF10227F00227F0022B5
:0B054000D288C289D2A8D2AFD2B82264
:1005130053890F438910E4F58DF58BC28FC28E2268
:070501008E098F0AE4FFFEE2
:0B050800AD07AC068C8DAF058F8B2279
:09057200BF0103D28E22C28E22C9
:10046C00AF8DEFFEAD8BEDFF7C007D5C1201787CD7
:06047C00007D6412016620
:010482002257
:030000000201CD2D
:0C01CD00787FE4F6D8FD7581350202143D
:10013900BB010CE58229F582E5833AF583E022507B
:1001490006E92582F8E622BBFE06E92582F8E222C5
:0D015900E58229F582E5833AF583E49322DF
:10016600EF8DF0A4A8F0CF8CF0A428CE8DF0A42EAD
:02017600FE2267
:10017800BC000BBE0029EF8DF084FFADF022E4CC6B
:10018800F875F008EF2FFFEE33FEEC33FCEE9DEC34
:10019800984005FCEE9DFE0FD5F0E9E4CEFD22ED7A
:1001A800F8F5F0EE8420D21CFEADF075F008EF2FC4
:1001B800FFED33FD4007985006D5F0F222C398FDB5
:0501C8000FD5F0EA2252
:1001D900020259E493A3F8E493A34003F68001F2E1
:1001E90008DFF48029E493A3F85407240CC8C33327
:1001F900C4540F4420C8834004F456800146F6DFF6
:10020900E4800B01020408102040809004EEE47E93
:10021900019360BCA3FF543F30E509541FFEE493EA
:10022900A360010ECF54C025E060A840B8E493A3B1
:10023900FAE493A3F8E493A3C8C582C8CAC583CADC
:10024900F0A3C8C582C8CAC583CADFE9DEE780BE94
:0105000000FA
:00000001FF
