:030475000134004F
:100259001204F712044712057C1204148F34E53492
:1002690060F7FB7A007516027D017F021202EAE54A
:1002790034B447057F5A1204E2E534B407117F2DDF
:100289001204E27F2C7E011204CD7F5A1204E2E5AA
:1002990034B445C57F871204E27F2C7E011204CD58
:0702A9007F5A1204E280B24B
:1004CD00EF1FAC0670011E4C600A7D017CF8DCFE4E
:0404DD00DDFC80ECD6
:0104E10022F8
:06052D00C2A58F80D2A7D9
:080533007F027EEFDEFEDFFC1B
:01053B00229D
:0A055500C2A612052DC2A70205334D
:1003D900CFCDCFCECCCE1201787C007D0A12017828
:0403E900ED2430FFD0
:0A03ED00D2A612052DC2A7020533A7
:10048B00AE07BE0104ED148006BE0209ED243F4405
:06049B0080FF120555224E
:1004F7007F381205557F0C1205557F061205557F6B
:040507000102055593
:0A055F00AC0312048BAF040203ED9D
:0603B6008B2C8A2D892E1C
:1003BC0012048BE4FDAB2CAA2DA92E8D8275830023
:0C03CC00120139FF60061203ED0D80E9FC
:0103D8002202
:0C035B007F0AEA24FFFDE434FFFC7E0072
:080367008E178F188C198D1AF6
:10036F007F017E00E4FBEBC3951AE5196480F874F6
:0E037F008098500AAC17AD181201660B80E88A
:01038D00224D
:0403F7008A248B25A4
:1003FB0012048BAA26EAD39400400D12035BAC24A3
:08040B00AD251203D91A80EDA2
:0104130022C6
:1002B00012048BC3EA64809480400B7F2B1203ED01
:1002C0008A208B21800E7F2D1203EDC3E49BF52144
:1002D000E49AF520AA1FEAD39400400D12035BAC08
:0902E00020AD211203D91A80EDB2
:0102E90022F2
:0402EA008A148B15D2
:1002EE0012048BAA16EAD3940040297F1012035DE4
:1002FE00AC14AD15CFCDCFCECCCE120178EF540FBE
:10030E00FEC3940AEE5004243080022437FF1203F9
:04031E00ED1A80D183
:0103220022B8
:040323008A298B2A6E
:1003270012048BAA2BEAD394004028EA24FFFDE4A9
:1003370034FFFC7F027E00120367AC29AD2ACFCDC4
:10034700CFCECCCE120178EF54012430FF1203ED4B
:030357001A80D237
:01035A002280
:1004A100E4FF20B1010F20B0027F0220B2027F03DE
:0504B10020B3027F04EE
:0104B6002223
:1004B70085302F1204A18F30E52F65306007E530B6
:0504C7007003852F31D8
:0104CC00220D
:09056900E5316005FFE4F53122E3
:010572002266
:100430005389F0438901758A18758CFCC28DD28C62
:07044000D2A9D2AFC2B9221C
:0604780001330001320017
:100447005389F0438901758A18758CFCC28DD28C4B
:07045700D2A9D2AFC2B92205
:1004E200EFD394B440027FB4EF75F02D8404C2A917
:0404F200F533D2A963
:0104F60022E3
:03000B0002038E5F
:04038E00C0E0C0D03B
:10039200758A33758CFEE5327002D293E532B5333D
:0F03A20002C2930532E532C3942840037532003E
:0503B100D0D0D0E032C5
:0C047E00010B00010C00010D0001080042
:0300030002000EEA
:10000E00C0E0C0F0C083C082C0D075D000C000C0B8
:10001E0001C002C003C004C005C006C007E50B70D6
:10002E0010750B01FFFE1205127F011205730201FE
:10003E001EE50B6401703F12045E12050BD3E50A38
:10004E0094C8E50994324010E50A94B0E509943657
:10005E005006750B0202011ED3E50A94FEE50994C3
:10006E00294010E50A94E6E509942D50067508011D
:10007E0002011E02011BE50B6402600302011E1247
:10008E00045E12050BD3E50A946CE5099402403820
:10009E00E50A94F0E5099405502EE50C131313545C
:1000AE001F240EF8C000E6FFE50C5407FE7401A8ED
:1000BE0006088002C333D8FCF45FD000F6050CE5C9
:1000CE000CC39420404A8040D3E50A94D6E50994A7
:1000DE0006403AE50A945AE509940A5030E50C13A5
:1000EE001313541F240EF8C000E6FFE50C5407FE50
:1000FE007401A806088002C333D8FC4FD000F60561
:10010E000CE50CC39420400812053C8003750B01CE
:10011E00D007D006D005D004D003D002D001D00035
:0B012E00D0D0D082D083D0F0D0E032DF
:06057C0012054A02051DF4
:0E053C00E4F50CF50BFFFE120512750D012201
:10041400E50D6015E511F4B5100CE50FF4B50E0605
:0C042400E4F50DAF10227F00227F0022C3
:0B054A00D288C289D2A8D2AFD2B8225A
:10051D0053890F438910E4F58DF58BC28FC28E225E
:07050B008E098F0AE4FFFED8
:0B051200AD07AC068C8DAF058F8B226F
:09057300BF0103D28E22C28E22C8
:10045E00AF8DEFFEAD8BEDFF7C007D5C1201787CE5
:06046E00007D641201662E
:010474002265
:030000000201CD2D
:0C01CD00787FE4F6D8FD7581340202143E
:10013900BB010CE58229F582E5833AF583E022507B
:1001490006E92582F8E622BBFE06E92582F8E222C5
:0D015900E58229F582E5833AF583E49322DF
:10016600EF8DF0A4A8F0CF8CF0A428CE8DF0A42EAD
:02017600FE2267
:10017800BC000BBE0029EF8DF084FFADF022E4CC6B
:10018800F875F008EF2FFFEE33FEEC33FCEE9DEC34
:10019800984005FCEE9DFE0FD5F0E9E4CEFD22ED7A
:1001A800F8F5F0EE8420D21CFEADF075F008EF2FC4
:1001B800FFED33FD4007985006D5F0F222C398FDB5
:0501C8000FD5F0EA2252
:1001D900020259E493A3F8E493A34003F68001F2E1
:1001E90008DFF48029E493A3F85407240CC8C33327
:1001F900C4540F4420C8834004F456800146F6DFF6
:10020900E4800B0102040810204080900475E47E0C
:10021900019360BCA3FF543F30E509541FFEE493EA
:10022900A360010ECF54C025E060A840B8E493A3B1
:10023900FAE493A3F8E493A3C8C582C8CAC583CADC
:10024900F0A3C8C582C8CAC583CADFE9DEE780BE94
:01048A000071
:00000001FF
